:0200000460009A
:100000004643464200000156000000000103030081
:1000100000000000000000000000000000000000E0
:1000200000000000000000000000000000000000D0
:1000300000000000000000000000000000000000C0
:1000400000000000010408000000000000000000A3
:100050000000800000000000000000000000000020
:100060000000000000000000000000000000000090
:100070000000000000000000000000000000000080
:10008000EB04180A063204260000000000000000FD
:10009000050404240000000000000000000000002F
:1000A0000000000000000000000000000000000050
:1000B0000604000000000000000000000000000036
:1000C0000000000000000000000000000000000030
:1000D00020041808000000000000000000000000DC
:1000E0000000000000000000000000000000000010
:1000F0000000000000000000000000000000000000
:10010000D8041808000000000000000000000000F3
:100110000204180804200000000000000000000095
:1001200000000000000000000000000000000000CF
:10013000600400000000000000000000000000005B
:1001400000000000000000000000000000000000AF
:10015000000000000000000000000000000000009F
:10016000000000000000000000000000000000008F
:10017000000000000000000000000000000000007F
:10018000000000000000000000000000000000006F
:10019000000000000000000000000000000000005F
:1001A000000000000000000000000000000000004F
:1001B000000000000000000000000000000000003F
:1001C000000100000010000001000000000000001D
:1001D000000001000000000000000000000000001E
:1001E000000000000000000000000000000000000F
:1001F00000000000000000000000000000000000FF
:10020000FFFFFFFFFFFFFFFFFFFFFFFFFFFFFFFFFE
:10021000FFFFFFFFFFFFFFFFFFFFFFFFFFFFFFFFEE
:10100000D100204000180060000000000000000037
:1010100020100060001000600000000000000000D0
:0C1020000000006000001F000000000045
:10102C00FFFFFFFFFFFFFFFFFFFFFFFF7EFFFFFF45
:1014000000040020E9180060EB180060EB18006091
:10141000EB180060EB180060EB180060EB18006040
:10142000EB180060EB180060EB180060077B0060B1
:10143000EB180060EB180060EB180060DD8E0060B8
:10144000EB180060EB180060EB180060EB18006010
:10145000EB180060EB180060EB180060EB18006000
:10146000EB180060EB180060EB180060EB180060F0
:10147000EB180060EB180060EB180060EB180060E0
:10148000EB180060EB180060EB180060EB180060D0
:10149000EB180060EB180060EB180060EB180060C0
:1014A000EB180060EB180060EB180060EB180060B0
:1014B000EB180060EB180060EB180060EB180060A0
:1014C000EB180060EB180060EB180060EB18006090
:1014D000EB180060EB180060EB180060EB18006080
:1014E000EB180060EB180060EB180060EB18006070
:1014F000EB180060EB180060EB180060EB18006060
:10150000EB180060EB180060EB180060EB1800604F
:10151000EB180060EB180060EB180060EB1800603F
:10152000EB180060EB180060EB180060EB1800602F
:10153000EB180060EB180060EB180060EB1800601F
:10154000EB180060EB180060EB180060EB1800600F
:10155000EB180060EB180060EB180060EB180060FF
:10156000EB180060EB180060EB180060EB180060EF
:10157000EB180060EB180060EB180060EB180060DF
:10158000EB180060EB180060EB180060EB180060CF
:10159000EB180060EB180060EB180060EB180060BF
:1015A000EB180060EB180060EB180060EB180060AF
:1015B000EB180060EB180060EB180060EB1800609F
:1015C000EB180060EB180060EB180060EB1800608F
:1015D000EB180060EB180060EB180060EB1800607F
:1015E000EB180060EB180060EB180060EB1800606F
:1015F000EB180060EB180060EB180060EB1800605F
:10160000EB1800608D900060EB180060EB18006034
:10161000EB180060EB180060EB180060EB1800603E
:10162000EB180060EB180060EB180060EB1800602E
:10163000EB180060EB180060EB180060EB1800601E
:10164000EB180060EB180060EB180060EB1800600E
:10165000EB180060EB180060EB180060EB180060FE
:10166000EB180060EB180060EB180060EB180060EE
:10167000EB180060EB180060EB180060EB180060DE
:10168000EB180060EB180060EB180060EB180060CE
:10169000EB180060EB180060EB180060EB180060BE
:1016A000EB180060EB180060EB180060EB180060AE
:1016B000EB180060EB180060EB180060EB1800609E
:1016C000000000000000000000000000000000001A
:1016D000000000000000000000000000000000000A
:1016E00000000000000000000000000000000000FA
:1016F00000000000000000000000000000000000EA
:1017000000000000000000000000000000000000D9
:1017100000000000000000000000000000000000C9
:1017200000000000000000000000000000000000B9
:1017300000000000000000000000000000000000A9
:101740000000000000000000000000000000000099
:101750000000000000000000000000000000000089
:101760000000000000000000000000000000000079
:101770000000000000000000000000000000000069
:101780000000000000000000000000000000000059
:101790000000000000000000000000000000000049
:1017A0000000000000000000000000000000000039
:1017B0000000000000000000000000000000000029
:1017C0000000000000000000000000000000000019
:1017D0000000000000000000000000000000000009
:1017E00000000000000000000000000000000000F9
:1017F00000000000000000000000000000000000E9
:0818000000102020F9890060AE
:1018100072B6264880F30888254880F30988254851
:1018200025490860022080F31488BFF36F8F05F00C
:1018300007FF05F049FE4FF0553020491B4A914201
:101840003CBF41F8040BFAE71D49194A91423CBFDD
:1018500041F8040BFAE71B491B4A1C4B9A423EBF56
:1018600051F8040B42F8040BF8E700201849194A14
:1018700091423CBF41F8040BFAE705F01FFF06F068
:10188000C5FC154C154DAC4203DA54F8041B8847CF
:10189000F9E703F053FD124C124DAC4203DA54F851
:1018A000041B8847F9E705F007BF0000000400208B
:1018B000000C00200014006008ED00E00000002093
:1018C0000004002058BA0060000C0020500D0020D9
:1018D0000010002084230020081800600818006011
:1018E000081800600818006092E700F000F8FEE7B2
:1018F0002DE9F04FC1F80CD0D0F80CD0BDE8F08F36
:10190000002383F311882846A047002006F0D2F870
:10191000FEE706F029F800DFFEE7000053B94AB9F8
:10192000002908BF00281CBF4FF0FF314FF0FF30E7
:1019300000F00CB8ADF1080C6DE904CE08F0C6FD5E
:10194000DDF804E0DDE9022304B07047704700BF12
:1019500008B5062000F034FF012006F085FC00BF2A
:1019600000B50A4C2668054685B01C46F06852B1A1
:10197000074B0091CDE9013206492B46224600F083
:1019800021F8FFF7E5FF044B1A46F2E7000C0020B0
:1019900088B9006098B9006094B9006008B5134632
:1019A0000022FFF7DDFF00BF0CB400B583B004AB2D
:1019B00053F8042B019300F091FA03B05DF804EBA7
:1019C00002B070470EB410B583B005AB064C53F8A7
:1019D000042B01930146206800F080FA03B0BDE8B3
:1019E000104003B0704700BF000C0020024B0146BE
:1019F000186800F0CDB900BF000C0020024B014672
:101A0000186800F06FB900BF000C00200000000053
:101A100001F0FF01102A2BDB10F0070F08D010F89F
:101A2000013B013A8B422DD010F0070F42B3F6D1A3
:101A3000F0B441EA012141EA014122F007047FF0BC
:101A400000070023F0E80256083C85EA010586EA13
:101A5000010685FA47F5A3FA87F586FA47F6A5FA4F
:101A600087F68EB9EED1F0BC01F0FF0102F007025B
:101A700032B110F8013B013A83EA010313B1F8D106
:101A80000020704701387047002D06BF35460338E7
:101A9000073815F0010F07D1013015F4807F02BF20
:101AA000013015F4C03F0130F0BC0138704700BF71
:101AB000032A70B412D940EA0105AD0704460B466B
:101AC00020D11946204653F8045B54F8046BAE420B
:101AD00018D1043A032A20461946F2D8541E72B18E
:101AE00003780A789A4208BF241806D00CE010F850
:101AF000013F11F8012F934206D1A042F7D10020F7
:101B000070BC7047541EEBE7981A70BC704700BF5A
:101B1000844641EA000313F003036DD1403A41D3F8
:101B200051F8043B40F8043B51F8043B40F8043BB7
:101B300051F8043B40F8043B51F8043B40F8043BA7
:101B400051F8043B40F8043B51F8043B40F8043B97
:101B500051F8043B40F8043B51F8043B40F8043B87
:101B600051F8043B40F8043B51F8043B40F8043B77
:101B700051F8043B40F8043B51F8043B40F8043B67
:101B800051F8043B40F8043B51F8043B40F8043B57
:101B900051F8043B40F8043B51F8043B40F8043B47
:101BA000403ABDD2303211D351F8043B40F8043BE7
:101BB00051F8043B40F8043B51F8043B40F8043B27
:101BC00051F8043B40F8043B103AEDD20C3205D3F7
:101BD00051F8043B40F8043B043AF9D2043208D0EF
:101BE000D2071CBF11F8013B00F8013B01D30B8861
:101BF00003806046704700BF082A13D38B078DD03F
:101C000010F003038AD0C3F10403D21ADB071CBF10
:101C100011F8013B00F8013B80D331F8023B20F87A
:101C2000023B7BE7043AD9D3013A11F8013B00F8B3
:101C3000013BF9D20B7803704B7843708B7883703B
:101C400060467047F0B4860746D0541E002A3CD048
:101C5000CAB2034602E014F1FF3436D303F8012B75
:101C60009D07F8D1032C29D9CDB245EA05250F2CC3
:101C700045EA054533D9A4F11006360903F12007DA
:101C800007EB061703F1100242E9045542E9025539
:101C90001032BA42F8D1721C14F00C0F03EB02128E
:101CA00004F00F0613D0331F23F00303043313444F
:101CB00042F8045B9342FBD106F003042CB1C9B295
:101CC0001C4403F8011B9C42FBD1F0BC7047344616
:101CD0001346002CF3D1F8E714460346C2E71A4630
:101CE0002646E0E700293CD038B551F8043C0C1FEB
:101CF000002BB8BFE418054601F086FB234B1A6899
:101D00002AB1A2420DD921686018824223D06260B4
:101D100028461C60BDE8384001F07CBBA34203D8D4
:101D20001A465368002BF9D111685018A04219D0F7
:101D300024D821686018834206D063605460284626
:101D4000BDE8384001F066BBD3E90003014463609D
:101D500021605460F3E7D2E900020144626021602F
:101D6000D6E7704720680144501883421160E6D1DD
:101D7000D3E90003014453601160E0E70C232B60BA
:101D80002846BDE8384001F045BB00BF00100020E8
:101D9000F8B5CD1C25F0030508350C2D38BF0C25F2
:101DA000002D064633DBA94231D82A4F01F02CFB27
:101DB0003A6852B113685B1B04D43FE023685B1B95
:101DC00029D522465468002CF8D1796800293BD0E7
:101DD0002946304606F02DFA431C28D0C41C24F0B6
:101DE0000304A04205D0211A304606F022FA013041
:101DF0001DD02560304601F00DFB04F10B0020F0F2
:101E00000700231DC21A01D01B1AA350F8BD0C22D3
:101E100032600020F8BD0B2B05D8A242636811D0B8
:101E20005360E7E7144623601C442560E2E70C2377
:101E30003046336001F0EEFA0020F8BD0B2BF1D8EC
:101E4000536814463B60D5E7304606F0F2F97860F7
:101E5000BEE700BF001000209368013B002B936099
:101E60000FDA10B49469A34208DB0A2906D013687C
:101E7000581C10601970084610BC704710BC00F068
:101E8000D7BC1368581C106019700846704700BF13
:101E90009BB1F8B513440F4606465D1E541E01E083
:101EA000AC4208D03A4614F8011F3046FFF7D4FF81
:101EB000431CF5D1F8BD0020F8BD0020704700BFDD
:101EC000936810B5144613B95360184610BD00F05E
:101ED000D3FF0023C4E9013310BD00BF2DE9F04F4B
:101EE0009FB08B4690461C46039018B18369002B27
:101EF00000F0C580B34B9B4500F0C780B24B9B45BB
:101F000000F0C780B14B9B4504BF039BD3F80CB0D6
:101F1000DBF86430BBF80C20DB0702D4970540F1F6
:101F20004381160740F12781DBF81030002B00F0C9
:101F3000228130238DF8323098F80030059400214A
:101F400020220B91A24E8DF831200127002B00F0AA
:101F50008580252B00F00D81454603E0252B00F000
:101F60009C8025466B786C1C002BF7D1B4EB080ADB
:101F700074D04246534659460398FFF789FF013013
:101F80006CD00B9B6A7853440B93002A66D00023D5
:101F90004FF0FF3201340693CDE908338DF85B3002
:101FA0001C93079205E0069A07FA03F313432C46A5
:101FB00006932546052215F8011B3046FFF728FD3C
:101FC000AA46831B0028EED1069BD80644BF2022D8
:101FD0008DF85B201907217844BF2B228DF85B20F8
:101FE0002A295FD1059A1168043200290592C0F2AE
:101FF000958009916178A51C2E296CD0754C03221F
:102000002046FFF705FD00287ED0001B069B4024DC
:1020100004FA00F00343069305F1010829786E489D
:102020008DF830100622FFF7F3FC00287CD06B4BB4
:10203000002B6CD005AB00935A46694B039806A958
:10204000AFF300808146B9F1FF3F07D00B9B4B44B3
:102050000B9398F80030002B7FF47BAFDBF86430F3
:1020600013F0010FBBF80C3002D19A0540F1A380A8
:102070005B0600F193800B981FB0BDE8F08F00F075
:10208000E3FD504B9B457FF439AF039BD3F804B07D
:102090003EE7039BD3F808B03AE7B4EB080A3FF4F5
:1020A00076AF66E7A1F13002092A88BFA246A3D81D
:1020B000099B01E02C460135297803EB830302EBF1
:1020C0004303A1F13002092AAA46F3D92E2904F1CB
:1020D0000205099392D19AF801102A292ED1059B65
:1020E0009AF802101A6807920433002A05930AF13D
:1020F00003050AF1020337DB364C032220469A46D9
:10210000FFF786FC002880D1A846554686E7059B48
:10211000073323F007030833059397E7494243F059
:1021200002030991069365E705AB00935A462C4BD1
:10213000039806A900F0F8F8814684E7A1F130027F
:102140000023092A079301D92BE05546697803EB50
:10215000830302EB4303A1F13002092A05F1010ACE
:10216000F3D90235079349E74FF0FF329A460792B9
:1021700044E744460BE75946039800F0B9FB0028B2
:102180003FF4D7AEDBF86430DD0707D4BBF80C3082
:102190009C0503D4DBF8580001F054F84FF0FF30F1
:1021A0006AE7AA46013529E7DBF8580001F042F852
:1021B000BBF80C20B5E6DBF8580001F043F8BBF89B
:1021C0000C3055E7C8A70060A8A7006088A700608A
:1021D000C8B90060D0B90060D4B900600000000048
:1021E000911E006010B4044C13460A460146206854
:1021F00010BCFFF773BE00BF000C00202DE9F047B4
:102200000C4691460A698968DDF820808A42B8BF89
:102210000A46C9F8002094F8431006461F4611B13B
:102220000132C9F80020236899065CD5D9F800204E
:102230000232C9F80020236813F0060F19461DD199
:10224000E1688A1A002AD8BF194617DD04F1190A75
:10225000002505E0E368D9F800209B1AAB420CDDAD
:102260000123524639463046C047013005F1010589
:10227000F0D14FF0FF30BDE8F087216894F843308B
:10228000003318BF01238A060AD5E1185A1C3020F2
:1022900081F84300224494F8451082F84310023339
:1022A00004F1430239463046C0470130E1D023688B
:1022B000A268216903F00603042B1DD08A4226DDA3
:1022C0004FF00009521A91441A34002501E04D459F
:1022D0001DDA0123224639463046C047013005F158
:1022E0000105F4D1C5E713F0060F13D094F843307D
:1022F000003318BF0123D3E7D9F80000E3688A420E
:10230000A3EB000323EAE379DCDC002BDCDC002018
:10231000BDE8F087E168D9F800208A1A002AD8BF02
:10232000194693DCAAE700BF2DE9F0430C46097E6D
:1023300085B06E29064617460C98984604F1430E60
:102340006DD039D9732900F0F68044D9752900F091
:102350000481782940F0118178232268DFF858C27F
:1023600084F845300168150651F8043B016040F1DE
:10237000A180D10744BF42F020022260002B00F070
:1023800093801022002184F843106068A060002828
:10239000C0F2C880216821F004012160002B40F0C8
:1023A000A380002840F0C0807546082A00F0AC8069
:1023B000AEEB0503236141E0632900F0E5801AD804
:1023C000002938D0582940F0D88084F84510226878
:1023D000DFF8E8C1C6E76F2900F0BF80702940F040
:1023E000CC802268DFF8D0C142F02002782322603E
:1023F00084F84530B6E7642902D0692940F0BD80F1
:1024000022680368110603F1040557D519680560B1
:102410000B46002959DBDFF8A4C10A22B5E703689F
:10242000226861691D1D056015061B6802D45006EF
:1024300000F1BD801960002375462361CDF800804E
:102440003B4603AA21463046FFF7D8FE013020D094
:102450002A46236939463046C047013019D02268E0
:102460000398E368920719D51A1A002A16DD04F1B9
:102470001909002504E0E36803981A1AAA420DDD41
:1024800001234A4639463046C047013005F101056F
:10249000F1D14FF0FF3005B0BDE8F0839842B8BFEE
:1024A000184605B0BDE8F083226822F020022260C1
:1024B000102267E7500648BF9BB25AE75106A5D5E0
:1024C000B3F9003005601946A3E76168A1602D20CB
:1024D0000029C3F1000384F8430002DB22F0040268
:1024E0002260DFF8D8C00A22754600E00B46B3FB35
:1024F000F2F102FB113093421CF8000005F8010DC7
:10250000F4D2082A7FF454AF2368DB077FF550AF7D
:10251000626823699A423FF74BAF302305F8013CCC
:10252000013D45E7002BDFD19CF8003084F84230B4
:1025300004F1420539E703686268191D01601D68EE
:1025400000212846FFF764FA002832D0401B606063
:102550002061002384F8433070E72268036812F09A
:10256000800F03F104051AD01B6805606F290CBFAA
:1025700008220A22DFF844C004E7012384F842104D
:10258000236104F14205E4E703681A68191D012379
:10259000016004F1420584F842202361D9E712F07A
:1025A000400F0DBF1B6805601B880560DEE71980C2
:1025B00041E76068CCE700BFF0B90060DCB90060BB
:1025C00038B5124B1C68A26B05461AB10023C2E94C
:1025D000045338BD1820FFF709FA0246A06378B10A
:1025E000012000210A4B1360C2E904010B230948B2
:1025F000094993810023C2E90101C2E9045338BDAE
:10260000064B07484221FFF7ABF900BF000C002042
:102610000E33CDAB34126DE6ECDE050004BA00607B
:102620001CBA006038B51A4B1C68A26B92B11469D1
:1026300018495369184801FB04F100FB0313A4FB7C
:102640000045611C1D4445F1000323F00040C2E930
:10265000041338BD1820FFF7C9F90246A06388B1FA
:1026600001200021C2E904010A480C4C0C4B0D4921
:102670000D4D146053600B24034695609481C2E9AC
:10268000041338BD094B0A484E21FFF769F900BF12
:10269000000C00202DF451582D7F954C0E33CDABFE
:1026A00034126DE62E7F954CECDE050004BA006016
:1026B0001CBA006010B580210446FFF769FB606416
:1026C00040B1031F00227C3043F8042F8342FBD12A
:1026D000002010BD4FF0FF3010BD00BF436C0BB1A8
:1026E00000207047E6E700BF1F2970B5054608D8EF
:1026F000436C16460C464BB153F8240043F8246053
:1027000070BD162202604FF0FF3070BDFFF7D2FFA0
:1027100008B96B6CF0E74FF0FF3070BD1F2938B57A
:1027200021D8426C05460C466AB152F8213053B1AB
:10273000012B16D0591C10D00025204642F82450F9
:102740009847284638BD284600F070F822460146D2
:102750002846BDE8384000F055B816230360012034
:1027600038BD002038BD162303604FF0FF3038BD60
:102770001F2921D838B5436C05460C4683B153F860
:10278000242003EB84034AB1511C10D0012A0CD041
:10279000002520461D609047284638BD012038BDE1
:1027A000FFF788FF28B96B6CE9E7032038BD0220EA
:1027B00038BD4FF0FF3038BD4FF0FF30704700BFDD
:1027C000024B01461868FFF7A9BF00BF000C0020AC
:1027D000024B0A4601461868FFF786BF000C00202E
:1027E000034B1868436C0BB10020704762E700BFD1
:1027F000000C0020024B01461868FFF7B9BF00BF6C
:10280000000C002038B50B46074C0546114618460B
:102810000023236005F030FD431C00D038BD236841
:10282000002BFBD02B6038BD8023002005F02CBD91
:10283000F8B50D461446064608B1836943B3254BE7
:102840009C422AD0244B9C4229D0244B9C4208BF56
:10285000F468A389A269A2601A0722D5236903B389
:1028600022686169D31AEDB299422F4629DD0133FE
:10287000A168501C0139A1602060157062699A42FC
:1028800016D0A389DB0701D50A2D11D03846F8BD33
:1028900000F0DAF90F4B9C42D4D17468D9E7B468E0
:1028A000D7E72146304600F023F838B92369D7E747
:1028B0002146304600F032F90028E7D04FF0FF37CC
:1028C000E4E72146304600F029F90028F6D12268D5
:1028D0000123CDE7C8A70060A8A7006088A7006013
:1028E000024B0A4601461868FFF7A2BF000C002001
:1028F0003B4B70B51D6806460C460DB1AB69DBB1AC
:10290000384B9C421ED0384B9C424AD0374B9C429D
:1029100008BFEC68B4F90C2093B2190718D52069E8
:1029200008B313F001022CD0636900225B42A3615B
:10293000A26060B3002070BD284600F085F9294BE5
:102940009C42E0D16C68B4F90C2093B21907E6D42C
:10295000DD063CD5580726D4206942F00803A38140
:102960009BB20028DDD103F42072B2F5007FD8D0ED
:102970003046214600F096FCA389206913F001023D
:10298000D2D1990758BF6269A2600028D2D1B4F9A8
:102990000C301A06CFD543F04003A3814FF0FF302F
:1029A00070BDAC68B6E7616B51B104F14403994264
:1029B00004D03046FFF796F9B4F90C200023636386
:1029C00000232069636022F024022060C5E742F002
:1029D0004002092333604FF0FF30A28170BD00BF79
:1029E000000C0020C8A70060A8A7006088A70060AE
:1029F0008B891A072DE9F0410C46804641D44A687C
:102A0000002A59DDE66A002E53D00022D8F8005083
:102A1000216AC8F8002013F4805251D101234046A6
:102A2000B047431C5FD0A389E66A216A5F0705D5DA
:102A30006268636B801A0BB1236CC01A02460023D4
:102A40004046B047461C45D1D8F80030B4F90C20B8
:102A5000002B55D01D2B01D0162B5AD123690022F3
:102A6000C4E90032616BC8F8005011B304F14403AB
:102A7000994202D04046FFF735F900206063BDE877
:102A8000F0810E69AEB10D680E6099070CBF6369E5
:102A90000023AD1BA3600AE02B463246A76A216AD9
:102AA0004046B8470028A5EB000506440ADD002D86
:102AB000F2DC0020BDE8F0810A6C002AA2DCF8E715
:102AC000606DB3E7A38943F04003A3814FF0FF306B
:102AD000BDE8F0812269A389226000226260DA04E5
:102AE000C0D56065BEE7D8F80030002B9BD01D2B09
:102AF0000CD0162B0AD0A38943F04003A381D9E759
:102B00002169C4E90013D304ACD5EAE7C8F8005042
:102B1000CFE742F04002A281CCE700BF38B50B6995
:102B20001BB30C46054608B183691BB3184B9C4286
:102B30001ED0184B9C4220D0174B9C4208BFEC681B
:102B4000B4F90C308BB1626ED00701D4990516D55B
:102B500028462146FFF74CFF636EDA07054602D48C
:102B6000A3899B050FD5284638BD0025284638BDCA
:102B70006C68E5E700F068F8D8E7AC68E0E7A06DBE
:102B800000F058FBE4E7A06D00F05CFBEBE700BF52
:102B9000C8A70060A8A7006088A7006020B1054B07
:102BA00001461868FFF7BABF034B0449186800F0E4
:102BB0000DBB00BF000C002084A700601D2B00602F
:102BC000014900F003BB00BF1D2B006008B5436E38
:102BD000DA0702D483899B0501D5002008BD806DEA
:102BE00000F028FB002008BD08B5436EDA0702D4C8
:102BF00083899B0501D5002008BD806D00F022FB74
:102C0000002008BD70B54A1E682505FB02F50E467A
:102C100005F17401FFF7BCF8044640B100210C3007
:102C2000666005F168022160A060FFF70BF820469E
:102C300070BD00BF024B0349186800F0C7BA00BF5F
:102C400084A700601D2B00602DE9F84F05463A4827
:102C500000F0F0FAAB69002B68D1384A2B65126896
:102C60003749A962AA42C5E9123304BF0123AB6107
:102C7000284600F073F86860284600F06FF8A860F6
:102C8000284600F06BF86E68E86000240423F360C7
:102C90007466C6E90044B460C6E90444B4612146E0
:102CA00006F15C000822FEF7CDFFDFF8A0B0AF68A8
:102CB000DFF89CA0DFF89C90DFF89C80214BC6F8E1
:102CC0003080C6E9086BC6E90AA92146FB607C662C
:102CD000C7E90044BC60C7E90444BC6107F15C007B
:102CE0000822FEF7AFFFEE68174BC7F83080C7E940
:102CF000087BC7E90AA92146F3607466C6E9004467
:102D0000B460C6E90444B46106F15C000822FEF731
:102D100099FF0123C6E9086BC6E90AA9C6F8308005
:102D20000548AB61BDE8F84F00F08CBA0248BDE839
:102D3000F84F00F087BA00BF6823002084A7006026
:102D4000C12B006009000100120002006D34006018
:102D500095340060D5340060F534006070B50646E7
:102D6000244800F067FA244B1D68AB697BB34835F3
:102D7000D5E90134013B05D525E0013B5A1C04F19E
:102D8000680420D0B4F90C20002AF6D100251B4B92
:102D9000E36004F15800656600F044FA154800F05D
:102DA00051FA2560C4E90155C4E90455A5612946D5
:102DB000082204F15C00FEF745FFC4E90D55C4E9A3
:102DC0001255204670BD2C682CB12546D0E7284608
:102DD000FFF73AFFCBE704213046FFF713FF044625
:102DE00028600028F1D1034800F02CFA0C2333604E
:102DF000E7E700BF7C23002084A700600100FFFFFD
:102E0000014800F017BA00BF7C230020014800F001
:102E100019BA00BF7C230020014800F00BBA00BFA4
:102E200068230020014800F00DBA00BF682300208D
:102E300008B5054800F0FEF9044B05491868BDE8DF
:102E4000084000F09DB900BF7C230020000C00204A
:102E5000CD2B006008B5054B0549186800F090F9C6
:102E60000448BDE8084000F0EDB900BF000C0020A8
:102E7000E92B00607C2300209368002B00F0028186
:102E80002DE9F04FB1F90C309BB20C46190783B015
:102E90008246904635D522699AB313F00202D8F8DB
:102EA00000603DD00027D4F828B0D4F820C0DFF867
:102EB000CC923D464D452B463A4628BF4B4661468F
:102EC0005046D5B1D847002840F3D280D8F8083012
:102ED0001B1A07442D1AC8F80830002B00F0B780E1
:102EE000D4F820C0D4F828B04D452B463A4628BF28
:102EF0004B4661465046002DE4D1D6E900750836B0
:102F0000D8E721465046FFF7F3FC002840F0308117
:102F1000B4F90C30D8F800609BB213F00202C1D1B2
:102F200013F0010940F0B080A76820684D46002DDD
:102F300054D09A0540F1BC80AF42BB4600F2E78016
:102F400013F4906F2FD0D4E9041707EB4707A0EBD9
:102F5000010B07EBD777681C7F105844B8423A46FC
:102F600084BF07463A465B0540F1E980114650466A
:102F7000FEF70EFF002800F0F5805A462169019007
:102F8000FEF7C6FDA289019B22F4906242F0800206
:102F9000A281A7EB0B0203EB0B00676123612060AA
:102FA000A2602F46AB465A46494600F0C5F9A268D2
:102FB0002368D21B5B442F46A26023600025D8F80B
:102FC0000830DB1BB944C8F80830002B3FD0B4F9F7
:102FD0000C30A76820689BB2002DAAD1D6E90095D5
:102FE0000836A4E70BF1080353E902679B46083350
:102FF000002FF9D03A460A213046FEF709FD002895
:1030000053D00130A0EB06094B46D4E904122068E6
:10301000BB4228BF3B46884203D9A5681544AB4252
:1030200019DC9A427DDC1346A56A216A3246504675
:10303000A847051E1CDDB9EB05096BD00120D8F8A7
:1030400008305B1B2E447F1BC8F8083013BB0020E0
:1030500003B0BDE8F08F31462A4600F06DF92368D1
:103060002B44236021465046FFF758FD0028E2D04C
:10307000B4F90C3043F040034FF0FF30A38103B0AC
:10308000BDE8F08F00207047334691461046174642
:103090004E469B46002FA5D00028B5D13A460A21BE
:1030A0003046FEF7B5FC0028ABD17B1C9946ACE757
:1030B0002369834215D36169A94212D82E4BA76AAE
:1030C0009D4294BF2B466FF000434A4693FBF1F3B9
:1030D000504601FB03F3216AB847071EC8DDED1B0C
:1030E0006DE7AF4228BF2F463A46494600F024F923
:1030F000A3682268DB1B3A44A3602260002BEED158
:1031000021465046FFF70AFD0028E8D0B0E72F46D9
:10311000AB4648E721465046FFF700FD00288ED019
:10312000A6E71A463146019300F006F9019BA16813
:103130002268C91A1A44A16022601D467BE75046E6
:1031400000F06EF9034600287FF423AF2169504652
:10315000FEF7C8FDB4F90C300C2223F08003CAF846
:10316000002087E70C23CAF80030B4F90C3081E75F
:103170004FF0FF306CE700BFFEFFFF7F00FCFF7FDA
:103180002DE9F04110F148071BD088460026D7E909
:103190000154013D0FD4A389012B05F1FF3506D958
:1031A000B4F90E300133204601D0C04706436B1CF2
:1031B00004F16804EFD13F68002FE8D13046BDE844
:1031C000F0813E463046BDE8F08100BF2DE9F8436E
:1031D00010F148071FD0884606464FF00009D7E98E
:1031E0000154013D11D4A389012B05F1FF3508D904
:1031F000B4F90E3001332146304602D0C04749EAC7
:1032000000096B1C04F16804EDD13F68002FE6D182
:103210004846BDE8F883B9464846BDE8F88300BF94
:10322000704700BF704700BF704700BF704700BFC6
:10323000704700BF704700BF0120704701207047F2
:10324000704700BF704700BF70B50C46B1F90E1053
:10325000002996B016461D4613DB6A4604F0F6FFB9
:1032600000280EDB019A02F47042A2F50052B2FA75
:1032700082F252094FF4806300202A60336016B056
:1032800070BDA38900221B062A6004D540230020BC
:10329000336016B070BD4FF480630020336016B009
:1032A00070BD00BF8A8992070B4606D501F147021F
:1032B00001211A60C3E90421704770B582B001ABE7
:1032C0006A460C460646FFF7BFFF009905463046A2
:1032D000FEF75EFDB4F90C3070B11649B162019A87
:1032E0000099206043F08003A381C4E904018AB9F6
:1032F0002B43A38102B070BD9A05FBD423F00303D6
:1033000004F1470243F002030121A3812260C4E9D2
:103310000421EFE73046B4F90E1004F0A3FF10B912
:10332000B4F90C30E4E7A38923F0030343F001036D
:103330001BB2DDE7C12B00608842F0B40DD98B18B9
:1033400083420AD9841832B1224613F8014D02F89B
:10335000014D9942F9D1F0BC70470F2A0ED80346AF
:10336000541E002AF7D001340C44013B11F8012B04
:1033700003F8012FA142F9D1F0BC704740EA0103E4
:103380009B073BD1A2F110073F0901F1200606EB94
:10339000071601F1100300F1100453F8105C44F813
:1033A000105C53F80C5C44F80C5C53F8085C44F86F
:1033B000085C53F8045C44F8045C1033B34204F135
:1033C0001004EAD17B1C1B0112F00C0F194402F00F
:1033D0000F05034415D0043DAD0803EB850C1C1FFD
:1033E0000E4656F8047B44F8047F6445F9D1013554
:1033F000AD002B44294402F00302B1E7541E0346FA
:10340000B1E72A46ACE700BF0148FFF713BF00BF92
:103410006C2300200148FFF715BF00BF6C2300207C
:1034200009B3F8B51446CAB106460D4600F066F871
:10343000A04202D32F463846F8BD21463046FEF75B
:10344000A7FC07460028F6D022462946FEF760FB77
:1034500030462946FEF746FC3846F8BD2746FEF7BB
:1034600041FC3846F8BD1146FEF792BC10B50C463B
:10347000B1F90E1004F0D2FE002803DB636D0344A3
:10348000636510BDA38923F48053A38110BD00BFE1
:10349000002070472DE9F0411646B1F90C201F4677
:1034A000D3050C460546B1F90E1009D422F480521A
:1034B000A2813B4632462846BDE8F04104F0B5BE45
:1034C0000022022304F0AFFEB4F90C20B4F90E1070
:1034D000ECE700BF10B50C46B1F90E1004F0A3FEE6
:1034E000A389421C0EBF23F4805343F480536065CC
:1034F000A38110BDB1F90E1004F099BE51F8043C3F
:10350000181F002BBCBF0B58C018704710B5074CD4
:1035100001F070FD204606220D2105F005FB204636
:103520000122BDE810400D2105F0F0BA0040004234
:10353000044A506842F6DF6153681B1A8B42FBD97C
:10354000704700BF001000E008B5064B064A1A603D
:1035500002F09AFF0022BDE808401146104602F032
:10356000A2BC00BFB8120020B0B2006010B50021AC
:10357000044600F036FD0146002002F0D3FF20464D
:1035800010BD10B50121044600F02BFD01460120BD
:1035900002F0C8FF0221204600F023FD0146022070
:1035A00002F0C0FF0321204600F01BFD014603206E
:1035B00002F0B8FF0421204600F013FD014604206C
:1035C00002F0B0FF0521204600F00BFD014605206A
:1035D00002F0A8FF204610BD01207047012070476F
:1035E00008B5FFF7FBFF08BD704708B5FFF7FCFF04
:1035F00008BD000013B502AB03E903000F4B1B78B5
:10360000B3B99DF8023073B16AB100F097FD04467A
:103610000146009800F05CFD0099204602B0BDE82C
:10362000104001F09DBB009800F06EFD0446F3E7EA
:10363000009800F083FD0099F0E700BF0D10002016
:10364000034610B400885C880A4640EA0440998822
:1036500010BCFFF7CFBF0120704710B50021044612
:10366000FFF7EEFF2146FFF7C0FF10BDFFF74EBF8B
:1036700001F0C2BC704708B500F026FCFFF7FAFF66
:10368000BDE8084040F6C41004F019BA08B5FFF7C9
:10369000F2FFBDE8084003F06DBC08B5FFF7EBFF93
:1036A000BDE8084003F06DBC38B501210546FFF7C1
:1036B000C7FF29460446FFF793FF08B9002038BD2D
:1036C0002946204603F0A4FA0028F7D029462046D0
:1036D00003F0EAF80028F1D02946204603F016FA54
:1036E0000028EBD02946204602F0E6FF0028E5D06E
:1036F000AB787BB145F65C539C4226D00ED845F69C
:10370000DF439C4218D045F65B539C421AD0B4F577
:10371000B84F0ED02846FFF75FFFD0E745F65D5360
:103720009C420CD045F6A8539C42F3D1FFF7B5FF5D
:10373000C4E7FFF7ABFFC1E701F094F9F6E701F04A
:10374000F3F8E7E701F0FCF8E4E701F0FCF8E1E763
:1037500008B503F078FB00F021F8BDE8084002F05E
:1037600001BE08B500F01FF802F0F4FEBDE8084005
:1037700003F06EBB704708B5FFF7FCFF08BD0120E2
:10378000704708B5FFF7FBFF08BD704710B504464A
:10379000FFF7F1FF2046FFF7F4FF10BD08B500204A
:1037A000FFF7F4FF08BD08B503F092FAFFF7EEFF4C
:1037B00008BD000010B503F08BFA074B1A7882425F
:1037C000044607D0187003F095FB044B18602046A0
:1037D000FFF7DCFF10BD00BF0C1000200810002018
:1037E00030B587B06C4684E803009DF80230BDF820
:1037F00004500BB100F0DAFF0023ADF8163094E866
:10380000030004AC0490ADF8141094E80300029097
:103810004DB1BDF808204FF6FF739A4203D0204601
:10382000FFF719FF18B194E8030000F0F5FE07B0A8
:1038300030BD008800F0A4BC10B50446002876D046
:10384000822813D103F044FA810770D4392000F0A4
:1038500051FF00F0DBFF4FF4487004F030F93920DD
:1038600000F050FFBDE8104000F0D0BF83280ED11B
:1038700003F02EFAC2075AD4532000F03BFF00F0A9
:10388000C5FF4FF47A7004F01AF95320E8E7842852
:103890000ED103F01DFA430749D4472000F02AFF58
:1038A00000F0B4FF4FF47A7004F009F94720D7E72D
:1038B000031FDBB2A02B0ED81D4B0146186803F086
:1038C0004FFA20B1204600F01DFF00F09FFF204678
:1038D00000F010FFC6E700F12003DBB2072B07D88A
:1038E00000F007040120A040C0B200F039FFB9E7A2
:1038F00000F15B03DBB2022B05D82438BDE8104091
:1039000080B203F0FFB900F15803DBB2162B06D8E2
:10391000084ABDE8104032F8130003F003BAEC285F
:1039200005D901F083FDBDE8104001F053BE10BD84
:10393000640C0020CCB2006008B5002858D0822862
:103940000FD103F0C5F9810752D5392000F0D2FE1E
:1039500000F05CFF392000F0D5FEBDE8084000F023
:1039600055BF83280AD103F0B3F9C20740D55320CD
:1039700000F0C0FE00F04AFF5320ECE784280AD193
:1039800003F0A6F9430733D5472000F0B3FE00F05B
:103990003DFF4720DFE7021FD2B2A02ADBD900F1AA
:1039A0002002D2B2072A07D800F00703012098406E
:1039B000C0B200F0DDFED0E700F15B02D2B2022A15
:1039C00004D8BDE80840002003F09CB900F158027B
:1039D000D2B2162A04D8BDE80840002003F0A2B9EC
:1039E000EC2805D901F080FDBDE8084001F0F2BDEA
:1039F00008BD38B505460C46FFF71EFF1CB9284622
:103A0000FFF79AFF38BD0A20013C04F058F8A4B231
:103A1000F4E708B539280CBF50210021FFF7E9FF72
:103A200008BD08B528B100F09BFEBDE8084000F0D5
:103A3000EDBE08BD08B528B100F09AFEBDE808400B
:103A400000F0E4BE08BD00002DE9F04790F80680C4
:103A5000857881460C4600F073FE4FEA181806463A
:103A6000C8B12E46BDB1C4F3072303F0F003402BC9
:103A700004D004F12003DBB2072B1FD9A94B5E78D9
:103A800016F0040607D0022000F01AFF00F058FEDE
:103A900080F00106F6B2C4F3033ABAF10B0F3CD83A
:103AA000DFE81AF00E000E005C005C00C700DF00CB
:103AB0003B003B00E9004B015A015A010026EAE7AE
:103AC000C4F30723C4F3032713F0F00F18BF3F011B
:103AD000E4B285B157B104F12003DBB2072B3846BD
:103AE00000D92CB900F03CFE00F090FE20465CE0CE
:103AF00000F04CFEF8E72046FFF71EFF6FB104F11F
:103B00002003DBB2072B384600D914B900F030FE91
:103B100001E000F043FE00F079FEAAF1080ABAF1D4
:103B2000030F03D803F0D4F8FFF730FE002E00F0A7
:103B3000718100F0FDFD10F0010040F06B8189F80B
:103B4000020000F0EDFD00F05BFA484600F078F965
:103B500000F0E6FDBDE8F04700F05EBAC4F30723CD
:103B600003F0F003C4F30327202BE4B218BF3F0196
:103B70007CB1012C45D0002D4DD0B8F1000F44D0C0
:103B800099F80630D907B1D56FF3071389F80630D5
:103B90003BE0644B5B78580711D44DB127B13846F0
:103BA00000F0DEFD00F032FE0020FFF745FEB4E736
:103BB0002846FFF7C1FE002FAFD03846A6E79DB1DB
:103BC000B8F1000F06D100F0F7FD3843C0B2FFF79F
:103BD00028FFA2E7B8F1010FF5D100F0EDFD384361
:103BE000C0B200F0F5FD98E7B8F1000F05D100F084
:103BF00001FE3846FFF71EFF8FE7B8F1010F8CD0AA
:103C0000F5E725B1B8F1050F87D83846DFE7B8F1F9
:103C1000040F82D8EDE7B8F1000FEAD0392C0CBFC1
:103C20004FF44870012003F04AFF2046FFF784FE5E
:103C300073E714F4406FC4F3812308D0012B7FF4A1
:103C40006CAF65B1C4F3090003F06CF865E725B10A
:103C5000C4F3090003F056F85FE72846FAE7284660
:103C6000F2E7E0B225B101F0E1FB01F0B3FC54E76B
:103C700001F03AFCF9E714F4407F2BD1002D7FF4DA
:103C80004CAFC4F34213E2064FEA830348BF0F254B
:103C9000DBB248BF9D4004F00F0048BFED4300FA7F
:103CA00003F0C4F3812448BFADB280B2022C40EAD5
:103CB000050009D0032C0AD0012C02D000F06EF9C7
:103CC0002BE700F063F928E700F070F925E700F032
:103CD0005AF922E7C4F3012205B312F0010F3FF4B1
:103CE0001CAFC4F342108000C3B204F00F00984030
:103CF00082B214F010001EBF0F209840C043C4F3DE
:103D0000812418BF80B2022C40EA02000FD0032C9D
:103D100010D0012C08D000F09DF9FEE612F0020F41
:103D2000DDE700BF0021002000F08CF9F5E600F08F
:103D300099F9F2E600F046F9EFE6E7B2C4F303249E
:103D40001DB1204600F05CF95FE73846FFF772FED0
:103D5000204600F061F9E0E6E7B2A7F1F003042B9A
:103D600040D8DFE803F003241017200045B1B8F174
:103D7000040F3FF6D2AEC4F3042000F057F9CCE6AE
:103D8000B8F1050FF5E7C4F30420002DE1D100F0F0
:103D900037F9C2E625B1C4F3042000F02BF9BCE6E4
:103DA00000F01CF9B9E61C4B5B785B0704D4C4F344
:103DB0000420002DCDD0EAE74DB1C4F30424204601
:103DC00000F01EF90321204600F056FDA5E6012073
:103DD00000F076FDB8F1010F7FF69FAE022000F0F3
:103DE0006FFD9AE63DB1B8F1000F01D03846DCE630
:103DF000C4F30420CBE7B8F1000F08D0392F0CBF73
:103E00004FF44870012003F05AFE38460EE7C4F321
:103E100004209EE7BDE8F0870021002038B5018826
:103E20000446807800F0B8F9054600F023F900F068
:103E3000A9F829462046BDE83840FFF705BE000036
:103E400013B50446014606226846FDF761FEA388C5
:103E5000F3B1BDF800204FF6FF739A4218D0204608
:103E6000FFF722FC70B900F06BFC88B1A3787BB13E
:103E7000084B5B785B070BD5022002B0BDE8104011
:103E800000F01EBD2046FFF7C9FF2046FFF7E5FB07
:103E900002B010BD0021002008B5002002F032FF62
:103EA000002002F03FFF00F081FC00F0AFFC01F0C9
:103EB000ADFBBDE8084001F08DBB08B500F02AFC61
:103EC000BDE80840FFF7E8BF08B500F059FCBDE8C1
:103ED0000840FFF7F2BFC0F30333062BC2B213D082
:103EE00094BF0E33063303F00F03012B10D8F02AD2
:103EF00010D004D8E72A8CBF002001207047F42A94
:103F000014BF002001207047E72A03D9F12AF7E700
:103F1000002070470120704713B504460146062271
:103F20006846FDF7F5FDA3886BB1BDF800204FF69C
:103F3000FF739A4207D0208800F022F902B0BDE852
:103F40001040FFF7C8BF002002B010BD82B002AB26
:103F500003E9030002B0704782B002AB03E903003B
:103F600002B0704708B5FFF701FB08BD08B5FFF7C1
:103F7000F9FF034B1880BDE80840FFF78DBF00BF75
:103F80000E1000207047FFF7F1BF0000024B1B88A6
:103F90001843FFF7EBBF00BF0E100020024B1B8839
:103FA0001840FFF7E3BF00BF0E100020024B1B8834
:103FB0005840FFF7DBBF00BF0E10002008B5FFF729
:103FC000E0FA08BD08B5FFF7F9FF034B1880BDE81C
:103FD0000840FFF761BF00BF101000200020FFF76E
:103FE000F1BF18B9B1FA81F040097047084100F0FB
:103FF00001007047012303FA00F080B2FFF7E2BF2F
:10400000012303FA00F0034B1B88184380B2FFF72B
:10401000D9BF00BF10100020034A0123834010883D
:1040200020EA0300FFF7CEBF10100020012303FA9F
:1040300000F0034B1B88584080B2FFF7C3BF00BF9E
:1040400010100020024B1B881843FFF7BBBF00BFB6
:1040500010100020024B1B881840FFF7B3BF00BFB1
:1040600010100020024B1B885840FFF7ABBF00BF69
:1040700010100020704701F0070330B5C908012473
:1040800002EB81029C40E4B2013A002112F8015F88
:1040900020FA01F343F300036B40234001316B40EE
:1040A00004291370F2D130BD10B5002200F00704CE
:1040B000C00801EB800110468B5CE34003F0010374
:1040C000934001321843042AC0B2F5D110BD00005C
:1040D00082B00B46ADF80400C0F3072008280ED8C4
:1040E0009DF8041018290AD800EB800000EB80002E
:1040F0000144044A89B2184602B0FFF7BCBF02B0BF
:10410000704700BF1210002082B0ADF80400C0F369
:10411000072008280DD89DF80430182B09D800EB8B
:10412000800000EB80001844034980B202B0FFF722
:10413000BBBF002002B07047121000200E4B73B5B9
:104140001D880E4BADF804001B881D43ADB20F2433
:1041500045FA04F3DB07E6B205D4013CF8D20026A9
:10416000304602B070BD0199304600F013FE80B2B7
:104170000128F2D0F4E700BF101000200E1000203C
:1041800007B5ADF804000198FFF7D8FF019903B017
:104190005DF804EB00F0FEBD13B5104BADF8041054
:1041A0001B782BB1019802B0BDE81040FFF7E8BFC3
:1041B00070B10198FFF7C2FF044601460198FFF76E
:1041C00087FF0199204602B0BDE8104000F0E2BD33
:1041D0000198FFF799FF0446F3E700BF0D10002098
:1041E000F8B50C4B0C4E1C780C4D3378A34200D123
:1041F000F8BD05EBC40335F834005F889A88D98888
:1042000040EA074042EA01410134FFF7A5FE04F00D
:104210000704EAE7CF100020CE1000208E10002007
:10422000064B10B418885C889A88D98840EA044004
:1042300042EA014110BCFFF78FBE00BF861000208C
:10424000F7B5224CA37913F0F00F08D1A37833B15E
:104250001F4B204F1D78204E3B78AB4201D103B05D
:10426000F0BD214606226846FDF752FCA18841B305
:10427000BDF800204FF6FF739A4222D006EBC5032B
:1042800060785A7890421CD1207816F835209042F8
:1042900017D19A78AAB99A88521A92B2C72A10D816
:1042A000A2790A48012161F30712A2719A7961F398
:1042B00007129A71FFF7C4FD03B0BDE8F040FFF7A5
:1042C0008FBF013505F00705C6E700BF8610002047
:1042D000CF100020CE1000208E1000202DE9F04FCE
:1042E000AE4D87B004460146062202A8FDF710FC39
:1042F0000622294604A894F800B094F801A0A778F3
:10430000B4F80480FDF704FCAB88002B00F0FF80BC
:10431000BDF810204FF6FF718A4200F0F880AE78A9
:10432000002E00F0F480A8EB030295F8069092B2FC
:10433000C72A09F0F00900F2B5800622294604A830
:10434000B9F1000F71D1FDF7E3FBBDF810204FF676
:10435000FF718A42B94614D02188914211D187B9A0
:10436000AB79012262F30713AB71FFF759FF2846BF
:10437000FFF766FDAB79A3710026304607B0BDE8B4
:10438000F08F8DF808B08DF809A08DF810B08DF879
:1043900011A0B8F1000F23D0BDF810104FF6FF7236
:1043A00091421DD0F7B97E497E4A0D7812787E4938
:1043B000AA421CD10298FFF7E3FEC0F30332012AA0
:1043C000C3B224D90E3202F00F02012A28D810F409
:1043D000706F21D0A27912F0F00F1DD14E46CCE7BC
:1043E000002FC9D0AB7943F00103AB71C4E701EBF7
:1043F000C2004778574506D111F832705F4502D1A7
:1044000080780028B8D1013202F00702D0E710F41A
:10441000706F01D0002BE1D02033DBB2072BDDD948
:104420002046FFF70DFDB146D8E7FDF771FBBDF85B
:1044300010304FF6FF72934210D022889A420DD16D
:1044400067B9AB79A3712046FFF7FAFC0822214631
:104450002846FDF75DFBFFF7E3FE8EE72046FFF7FA
:104460005BFDD8B1D7B1AB791F2B0CD92A88ADF839
:10447000102004A800228DF81220ADF814808DF8C9
:104480001630FFF7DDFC082221464448FDF740FBCB
:10449000FFF7D6FEFFF7C4FE01266EE72046FFF7C2
:1044A000CFFCF9E7B9F1000F15D102AB8DF808B0D8
:1044B0008DF809A08DF80A7093E80300FFF746FD18
:1044C0002846FFF7BDFC082249462846FDF7BAFBFF
:1044D000FFF7A6FE82E70622294604A8FDF718FB8F
:1044E000BDF810304FF6FF729342B7D02A88238868
:1044F0009A42B3D1002FB1D1AB79A3712046FFF717
:104500009FFC082239462846FDF79CFB35E72349E6
:104510000193062204A8FDF7FBFA019B002B64D04F
:10452000BDF810204FF6FF794A455ED0AE78002ED8
:104530005BD1A8EB03081FFA88F8B8F1C70F43D87E
:104540003E46002FAAD01549062204A8FDF7E0FA3E
:10455000BDF810304B4529D02A8823889A4225D1AE
:10456000AB79DA0713D413F0F00210D0F02AA3715C
:1045700006D0DBB2C3F30312013262F30713A37157
:104580002046FFF75DFC05480822214661E7082226
:1045900021460248FDF7BCFAEFE600BF8610002076
:1045A000CE100020CF1000208E1000202046FFF7F4
:1045B000B3FC00287FF467AFAB79204643F00103DA
:1045C000AB71FFF73DFCD8E68DF808B08DF809A077
:1045D0008DF80A7002AB93E80300FFF7B7FC0822DE
:1045E00031460C48FDF72EFB35E7002F3FF456AF60
:1045F0002046FFF791FC064600283FF44FAF082203
:1046000021460448FDF784FA0248FFF712F9FFF744
:1046100017FE20E786100020F0B587B06C4684E8CE
:1046200003002046FFF75AFE2E4FBDF804202E4D02
:10463000064678B194E803000490ADF814103AB13E
:10464000BDF810204FF6FF739A4201D0FFF784FCAB
:10465000264C41E094E8030004AB83E80300029099
:10466000002AF5D0BDF8084038782A784FF6FF7157
:104670008C42EDD0441C04F0070494420AD0194641
:104680001A4B082203EBC000FDF742FA3C70FFF71B
:10469000A7FDDDE7FFF718FC0822314614483E70FD
:1046A0002E70FDF7CFFAD3E704EBC000FFF716FE3C
:1046B000B0B12B7834F8330004EBC3035E889A88DA
:1046C000D98840EA064042EA0141FFF745FC2B78D1
:1046D000013303F007032B7028783B788342E3D142
:1046E00007B0F0BDCE100020CF1000208E100020AB
:1046F00086100020024B0146186802F066BB00BF1E
:10470000640C0020024B0146186802F060BB00BF39
:10471000640C0020014B186802F05BBB640C0020A5
:10472000024B93F90000C0F3C7007047E01000206F
:10473000024B187800F00700704700BFE01000201F
:10474000034B187810F0070018BF0120704700BF16
:10475000E0100020014B1878704700BFE2100020E5
:10476000024B1A7810431870704700BFE210002007
:10477000024A137823EA000313707047E210002006
:10478000014B00221A707047E2100020024B1A7889
:1047900010431870704700BFE3100020024A1378DE
:1047A00023EA000313707047E3100020014B00223E
:1047B0001A707047E3100020014B1878704700BF53
:1047C000E1100020704708B5FFF7FCFF08BD0000AE
:1047D000064A5278520708B506D5054A1178814233
:1047E00002D01070FFF7EFFF08BD00BF00210020CE
:1047F000E110002008B5044B1A781AB10020187097
:10480000FFF7E1FF08BD00BFE110002010B5124B1B
:10481000124A1B781278124C1343124A20681278FD
:10482000037032B11343037002F08CFA08B1FFF742
:10483000E1FF24680C4908222046FDF739F948B108
:10484000214609480822FDF763F92046BDE81040DB
:1048500002F046BA10BD00BFE2100020E3100020B5
:10486000640C0020E1100020D8100020704708B52B
:10487000FFF7FCFF08BD00000A4A5278520710B546
:104880000CD5094C41EAC0012170FFF7B9FB94F93E
:104890000000C0F3C700FFF7EAFF10BDBDE81040FD
:1048A000FFF7AEBB00210020E010002008B5034B4D
:1048B00000201870FFF7DBFF08BD00BFE0100020EC
:1048C00008B50C4A92F9003023EA000040B210709B
:1048D00042070ED1DBB283420BD0074B5B785B07FC
:1048E00007D5C0F3C700FFF797FBBDE80840FFF707
:1048F000DDBF08BDE010002000210020094A08B5F6
:104900005378C3F3800181420AD060F3820353706D
:10491000108800F041F8BDE808400220FFF7D0BF42
:1049200008BD00BF00210020044B5878C0F3800070
:1049300080F0010000F00100FFF7E0BF002100203F
:104940000120FFF7DBBF0020FFF7D8BF08B500F05C
:10495000BFFFBDE808404FF6FF71002000F09CBF8C
:1049600008B5002000F04BFF4FF6E863C31A584229
:10497000584108BD022000F033BF032000F030BFD3
:1049800010B5042000F02CFF0446222000F028FF80
:1049900044EA002080B210BD10B5C1B20446042024
:1049A00000F06CFF210A2220BDE8104000F066BF35
:1049B00001460F2000F07EBF0146132000F07ABFB1
:1049C0000020FFF7F9BF08B50020FFF7F1FFFFF760
:1049D000F7FF08BD10B500F07BFF4FF6E86100203F
:1049E00000F05AFF0021022000F048FF00210320C0
:1049F000002400F043FF1A4B214604201C8000F0E5
:104A00003DFF0421222000F039FF2146052000F05F
:104A100035FF2146062000F031FFFF21072000F07E
:104A20002DFF2146082000F045FF21460D2000F013
:104A300025FF2146182000F03DFF2146172000F0F9
:104A40001DFF21461C2000F035FF2146202000F0EC
:104A500023FF2146182000F02DFFFFF7B4FF10BD03
:104A60000E100020FFF7B6BF01460E2000F006BF73
:104A700008B502F03FFA024B1860024B186008BDFF
:104A8000E4100020E81000207047704708B5FFF7D9
:104A9000FCFF08BD08B5FEF757FD08BD08B5054881
:104AA00000F064FA00F01CFFFFF7EEFFFFF7EEFFE7
:104AB00008BD00BF654F00600120704708B5FFF7D3
:104AC000FBFF08BD7047704708B5FFF7FBFFFFF716
:104AD000FAFF08BD08B500F06BFABDE80840FEF724
:104AE00054BE08B502F004FA00F018FBFFF7F2FF1D
:104AF00001F0E2FCFFF7CEFF08BD00002DE9F04F0A
:104B000085B03C4F00F024FB3E460024E0B256F84E
:104B1000045B00F075FA082C46D0854204F10104CC
:104B2000F4D0354B1B789B0701D500F06FFAFFF7E7
:104B3000C5FF002601900DF1080A5FFA86FB584672
:104B400000F05EFA57F8043B9842044626D080EA0B
:104B5000030900254FF0010819EA080F16D0019B40
:104B6000A3B114EA080F14BF012200228DF80850E7
:104B70008DF809B08DF80A2002F0F0F940F001003C
:104B8000ADF80C009AE80300FEF72AFE0135EDB2FD
:104B9000192D4FEA4808DFD147F8044C0136092E99
:104BA000CBD1FFF765FF1BE08542BAD1134D02F070
:104BB000D5F92B888342044612D04FF6FF73ADF827
:104BC000083000238DF80A3002F0C8F940F00100E7
:104BD000ADF80C0004AB13E90300FEF701FE2C80D6
:104BE00001F0CAFC00F03AFD05B0BDE8F04FFEF759
:104BF000E1BD00BFF010002014110020EC100020D7
:104C000010B500F0D3F8B0F5A44F04463AD2B0F591
:104C1000A24F80F08780E72815D8DF280AD8A72878
:104C20000AD8A4286CD8012804D0031F9BB2A12B5A
:104C300028BF0024204610BDA0F1A8039BB2162B6C
:104C400063D90024F6E7B0F5A04F0FD2B0F5804F3E
:104C500063D2FF2804D8EC28F3D940F4A0440FE035
:104C6000A0F580739BB2B3F5F85FE1E7C0F385036D
:104C7000012400F00300844044EA431444F40D444A
:104C8000A4B2D7E7B0F5AC4F1AD2B0F5AA4FC0B274
:104C900051D2B4F5A84F0ED28308B4F5A64F00F058
:104CA00003004FF0010404FA00F040EA43143FD23D
:104CB00044F40C44E4E74AF2F40444EA0024B9E77B
:104CC000B0F5B44F0CD2B0F5B24F3CD2A0F5B04322
:104CD0009BB2FF2BB5D84AF2F00040EA0424CFE79C
:104CE000A0F5C0439BB2B3F5005FAAD2C0F3042085
:104CF00000F0E2F8030203F4F853E4B21C431FE0AF
:104D0000A0F1240444F48044BAE75834134BE4B2CD
:104D100033F8144044F488448CE7C0F30B0444F4A3
:104D2000204487E7C4B24AF2F10343EA042481E74E
:104D300044F40A44A4E700F0BFF8040204F4F85471
:104D400044F4005476E700F00F0000F0B5F8C4F327
:104D5000031440EA042444F4104491E7FAB20060DA
:104D600082B0ADF80410C1F3072108290ED89DF8D0
:104D70000430182B0AD8E1225043192202FB01000B
:104D80001844034B33F8100002B070470020FBE7D3
:104D900024A8006007B5ADF804100199FFF7E0FF03
:104DA00003B05DF804EBFFF72BBF0000E72850D8F5
:104DB000DF2807D8312865D00ED8292858D02A28CE
:104DC00067D07047A0F1E003072B42D8DFE803F07B
:104DD0001541242933413D42392804D0822802D08C
:104DE000352840D07047334B1A7892075CD15B78F6
:104DF00013F0080F18BF292070472E4A1378D907DF
:104E00004ED4527812F0010F23D013F0100F08BFC8
:104E1000E32018BF00207047264B1B7813F0040FC7
:104E2000F2E7244A137859073CD45278D2073BD48E
:104E300013F0100FEDE71F4B5A78910709D51B7837
:104E400013F0100F08BFE720E3E71A4B1B781A078F
:104E5000F6D47047174A1378190727D45278910768
:104E6000E6D5E4207047134B1B7813F0200FC1E701
:104E7000104B1A7892061BD45B7813F0080F18BFFA
:104E8000392070470B4B1B7813F0400F18BF2A20B6
:104E90007047084B1B7813F0400F18BF3120704744
:104EA00039207047E2207047E0207047E6207047C5
:104EB0003520CEE700210020294A1378590707D56D
:104EC00000F01801082927D100F0F70040F0040095
:104ED000190707D500F01801182926D100F0E700BE
:104EE00040F014005278D10707D500F018010829C6
:104EF00024D100F0F70040F00100920707D500F040
:104F00001802182A23D100F0E70040F01100DB0658
:104F100048BF00F0E700704700F01401042904BF07
:104F200000F0FB0040F00800D2E700F01401142963
:104F300004BF00F0EB0040F01800D3E700F01101CF
:104F4000012904BF00F0FE0040F00800D5E700F0A2
:104F50001102112A04BF00F0EE0040F01800D6E75D
:104F6000002100200020704700207047014B18608E
:104F7000704700BF680C0020FFF7E8BC08B500F0E0
:104F8000E7F84FF4C87002F09AFD00F0E1F8002055
:104F900000F036F8C30705D5FFF7EEFFBDE808407F
:104FA00001F0E8BF08BD08B5FFF7E8FF08BD000045
:104FB00008B5FFF7D5FC08B9FFF754FDFFF7DAFC99
:104FC000094B1870FFF7DCFC084B1880FFF7EBFF6C
:104FD000FFF7D3FC80B2FEF7D6FF054B1888BDE87B
:104FE0000840FEF7EBBF00BF141100200021002095
:104FF000101000207047704708B5FFF7FCFF08BD90
:10500000014B53F82000704728210020704700BF53
:1050100000BF00BF00BF00BF00BF704708B530230E
:1050200083F31188C1B220F47F60032220F00F00C7
:1050300003F07AFD002383F3118808BD38B50C4DC9
:10504000092455F8040B421C01D0FFF7E7FF013C8F
:1050500014F0FF04F5D1074D192455F8040B431C37
:1050600001D0FFF7DBFF013C14F0FF04F5D138BDA0
:105070008CB3006028B300602DE9F84FDFF8908012
:1050800058F821400D46611C074636D0302383F383
:105090001188DFF8809004EA0906E4B22146304620
:1050A000062203F041FD21460022304603F02EFD8A
:1050B000002484F31188FFF7AAFFDFF85CB01926FB
:1050C0004FF0010A5BF8040B421C18D10023013E8B
:1050D00016F0FF0644EA03044FEA4A0AF2D158F8F0
:1050E0002500431C01D0FFF799FF211E18BF0121A5
:1050F0002846FEF71DFA47F82540BDE8F88FC1B2F3
:1051000000EA090003F0F8FC0028DFD15346DEE78F
:105110008CB3006000F0FFFF28B3006010B52424BA
:10512000FFF78CFF224600210748FCF78BFD224643
:1051300000210648FCF786FD092000F03BF8BDE899
:105140001040FEF793BA00BF282100200421002060
:1051500070B58AB02422002101A8FCF773FD002459
:10516000E1B201A80134FFF787FF092CF8D10F48FD
:10517000242201A9FCF79CFC002814BF012600266C
:1051800007D001AC0FCC094D0FC50FCC0FC523685C
:105190002B60074905483346092200F01DF80446F4
:1051A000FEF766FA20460AB070BD00BF0421002059
:1051B0002821002010B500EB800404EB8404204675
:1051C000FCF714FC034B22460021BDE81040186098
:1051D000FCF738BD181100202DE9F04F494D4A4F1A
:1051E0002E7885B01C4600230390029100923B70FC
:1051F000002E5FD001F07EFE444B19681860411A02
:10520000FF2904D821B9002C5DD1344653E0FF2199
:105210003F4BDFF800E1D3F800C00022C9B22A708A
:105220008EF800209046914692460098D3B298425C
:105230000BD8B9F1000F01D001232B70B8F1000F8A
:10524000E1D001238EF80030DDE70CF1FF330CF1E3
:10525000180B13F8010F40B1814233BF401A83F895
:1052600000A0B046187038BFB1465B45F1D10CF1D3
:10527000190C0132D9E7039A4C6852F82320624096
:1052800002920022012606FA02F9029E16EA090F8E
:1052900009D018F8026036B9012008F802A084EAA3
:1052A0000904864684460132192AEBD141F8044F9D
:1052B000013316E01CB9174B1B78FBB11CB901F088
:1052C00019FE124B1860124B95F800C01B68019331
:1052D000029B3878191F00239E464FF0190B4FF0A0
:1052E000140A019A009C0BFB0328DAB29442C2D83C
:1052F000BEF1000F02D085F800C03870387805B0D4
:10530000BDE8F08F16110020151100201C1100209F
:10531000181100202011002008B502F0E5F8FFF771
:10532000E0FBBDE8084002F0F5B808B502F0F8F877
:10533000FFF7E4FBBDE8084002F012B908B501F040
:105340009DFD02F0CFF8FFF7A9FBFFF7E5FFFFF7A0
:10535000ECFFFFF7B9FBFAE7164B1B78D90707D527
:10536000154B187840007F2820D808B3C0B270478A
:105370009A0703D5104B18788000F4E75B0703D534
:105380000D4B1878C000EEE70C4B1B7863B10C4A4C
:105390000949127808789342F4D210FB03F0C00058
:1053A000B0FBF2F080B2DEE70820DFE77F20704735
:1053B000012070472C1100206E0C00202D110020C0
:1053C0006F0C0020154B1B78D90705D5144B1878A6
:1053D000800800B3C0B270479A0703D5104B187805
:1053E0004008F6E75B0705D50D4B18787F28F0D904
:1053F0007F2070470B4B1B785BB10B4A0849127832
:105400000878934236BF10FB03F080B2B0FBF2F095
:10541000ECE70120DEE70120704700BF2C110020DF
:10542000720C00202E110020730C0020ED2808B50E
:1054300005D1FFF791FF4042294BD87008BDEE28F7
:1054400002D1FFF789FFF7E7EF2805D1FFF784FFC7
:105450004042234B9870F1E7F02802D1FFF77CFF20
:10546000F7E7F92804D1FFF7ADFF1D4B1871E5E709
:10547000FA2803D1FFF7A6FF4042F6E7FB2805D143
:10548000FFF7A0FF4042164B5871D7E7FC2802D126
:10549000FFF798FFF7E700F10F03DBB2072B08D8FF
:1054A0000F4A0123F13803FA00F053781843507083
:1054B000C4E7FD2805D10B4A137843F001031370AC
:1054C000BCE7FE2804D1074A137843F00203F6E74D
:1054D000FF28B3D1034A137843F00403EFE700BF7A
:1054E000261100202C110020364BED2893F90220C4
:1054F0000AD193F9031000290CDA0021D97052B9AE
:10550000314A0021117006E0EE280DD193F9031005
:105510000029F2DC72B11A795B7913435AB2002B7D
:105520004FD12A4B1A707047EF2806D1002AF1DAC2
:1055300000229A7093F90320E1E7F02802D1002AB3
:10554000F6DCE7E7F92893F9041004D10029E1DD3E
:1055500000211971DEE7FA2802D10029DADAF7E72B
:10556000FB2893F9051004D10029D3DA00215971E1
:10557000D0E7FC2802D10029F8DCCBE700F10F01CD
:10558000C9B2072907D8F13801218140587820EAAB
:1055900001005870BEE7FD2805D10D48017821F0C3
:1055A00001010170B6E7FE2804D10948017821F015
:1055B0000201F6E7FF28ADD10548017821F004018A
:1055C000EFE77047261100202D1100202E1100203A
:1055D0002C11002008B501F0C1FC094BDA7899784C
:1055E0000A431CBF074A10801A795B7913431CBF1A
:1055F000054B1880BDE80840014801F079BB00BFA9
:1056000026110020221100202411002008B50622B6
:1056100005480021FCF716FB044A00231370044AD6
:105620001370044A137008BD261100202D110020AC
:105630002E1100202C11002090F902305BB990F956
:10564000033043B990F904302BB990F905000038C4
:1056500018BF0120704701207047000037B5574C34
:10566000062221466846FCF753FA00239DF80220E3
:10567000A370E370237163719DF8033013430AD064
:105680004F4B188801F06FFC4E490B783BB34E4AE4
:10569000127890422DDC9DF804209DF805301343CC
:1056A0000BD04A4B188801F05EFC49490B78002B5F
:1056B0004CD0484A1278904252DC4048694601F08A
:1056C0008DFB18B93D48FFF7B7FF08B1FFF782FF20
:1056D000062269463948FCF71BFA03B030BD3E4A42
:1056E000127802EB8202B0EB420FD4DD01330B7073
:1056F00001E0FF2BFAD19DF902503DB1FFF72CFEDE
:10570000002DCCBF0123FF234343A3709DF9035019
:105710003DB1FFF721FE002DCCBF0123FF23434302
:10572000E37094F90220002AB5D094F90330002BDD
:10573000B1D0B5214A43121201FB03F308BF012285
:105740001B1208BF0123A270E370A4E7234A12785A
:1057500002EB8202B0EB420FAFDD01330B7001E0D0
:10576000FF2BFAD19DF904503DB1FFF72BFE002D20
:10577000CCBF0123FF23434323719DF905503DB165
:10578000FFF720FE002DCCBF0123FF2343436371AD
:1057900094F90420002A90D094F90530002B8CD085
:1057A000B5214A43121201FB03F308BF01221B1269
:1057B00008BF0123227163717FE700BF261100201B
:1057C000221100202D1100206D0C0020241100203A
:1057D0002E110020710C00206C0C0020700C002099
:1057E00007B50023014601220DF107008DF80730AF
:1057F00000F078F89DF8070003B05DF804FB07B5EA
:105800000023014602220DF10600ADF8063000F03B
:1058100069F8BDF8060003B05DF804FB07B5042283
:10582000014600230DEB0200019300F05BF80198A4
:1058300003B05DF804FB07B501228DF8071001469F
:105840000DF1070000F066F803B05DF804FB07B542
:105850000222ADF8061001460DF1060000F05AF8DC
:1058600003B05DF804FB07B50422019101460DEB7E
:10587000020000F04FF803B05DF804FB38B50C46A9
:105880000546FFF7ADFFA04205D021462846BDE8FA
:105890003840FFF7D0BF38BD38B50C460546FFF796
:1058A000AEFFA04205D021462846BDE83840FFF7AC
:1058B000CEBF38BD38B50C460546FFF7AFFFA04256
:1058C00005D021462846BDE83840FFF7CCBF38BD9B
:1058D000024824220021FCF7B5B900BF3011002096
:1058E000FFF7F6BF70B50D46144600210646FCF7DB
:1058F000A9F92B19242B88BFC5F124043CB1044914
:10590000224629443046BDE87040FCF701B970BD1D
:10591000301100200B461144242988BFC3F1240212
:1059200022B1014602481844FCF7F2B8704700BFA4
:105930003011002030B585B010F47F4F0A46019039
:10594000C0F30725C0F3074117D10AB1304B595CAA
:105950008DF80C108DF80D108DF80E109DF80C3090
:10596000002063F307009DF80D3063F30F209DF8CE
:105970000E3063F3174005B030BD9DF8044072B39C
:10598000234B595C04EB4400FF234000B0FBF3F0D1
:105990006FF05403434303EB440303EB4303DBB2D5
:1059A00015FB03F2C3F1FF036B4312121B12C5F187
:1059B000FF04C2F1FF02C3F1FF034C434A434B43D0
:1059C000C4F30724C2F30722C3F30723C9B206288E
:1059D00019D8DFE800F00608110F1418060089B284
:1059E000D0E70A4619468DF80C108DF80D208DF879
:1059F0000E40B3E70B46114622461C46F3E71A4613
:105A00000B462146F9E70B46214614461A46EAE7BB
:105A1000F2B4006084B0012104B0FFF78BBF70477F
:105A200084B004B0FFF7F6BF13B58DF802208DF8EF
:105A300000008DF8011000981C46FFF7F1FFC0F33D
:105A40000743C0F3072262702070A37002B010BD3C
:105A50000A2A28BF0A22FFF7E7BF0000094A137885
:105A600013F0FE0F09D1012161F347031370D378BE
:105A70000A2B84BF0A23D3707047532BF7D92921EF
:105A8000F2E700BF4C2100200820FFF7C7BE08B591
:105A9000FFF7E4FF0146BDE808400820FFF70ABF12
:105AA000014B1868FFF7F3BF4C210020034B04485B
:105AB000186000221A71FFF7EABF00BF4C210020D6
:105AC0000300FF0A034B1B7813F0010018BF5808AE
:105AD000704700BF4C210020044A1379022B9CBF61
:105AE0000133137108B1FFF7DBBF70474C21002071
:105AF0000120FFF7F1BF0000044A13790BB1013B0D
:105B0000137108B1FFF7CCBF704700BF4C210020D4
:105B10000120FFF7F1BF0000044A0123927883407F
:105B20001A4214BF01200020704700BFBC120020A1
:105B300000F08ABE2DE9F04F2F48304E027896F8DB
:105B400001A012F0010285B010D02D4BD3F80080D7
:105B5000B8F1000F1DD130782A4B00EB40005146C0
:105B60001844FFF7E5FF05B0BDE8F08FB178254D8B
:105B7000F47801EB41032B448C4203F10303E4D995
:105B8000013103F8022C03F8032C03F8012CC9B2ED
:105B9000F2E70378DB07DED590F803B0DFF8649016
:105BA0000027F8B2FFF7B8FF10B358F82750002DC0
:105BB000D1D02B786C78A878E978FF2B05F1050512
:105BC00016D01C44452CA8BF452404EB440403EB29
:105BD00043034C444B449C42EBD95A4603930291F5
:105BE0000190FFF735FF039B029901980333F2E719
:105BF0000137082FD5D1AEE74C210020770C0020CB
:105C0000B8120020542100200E4B1B78DB0770B423
:105C100016D50D4B0D4E9C78DD7804EB44033344D0
:105C2000AC4203F1030302D370BCFFF783BF01341E
:105C300003F8020C03F8031C03F8012CE4B2EFE7AD
:105C400070BC70474C210020770C002054210020AC
:105C5000094B1B78DB0707B50AD501ABFFF7F8FE48
:105C60009DF806209DF804109DF80500FFF7CCFF75
:105C700003B05DF804FB00BF4C210020064B027905
:105C8000064910B504468A5C58789978FFF7E0FF1A
:105C900023790133237110BD4C210020F2B3006041
:105CA000054B10B50446DA7899780079FFF7D0FFF4
:105CB00023790133237110BD4C2100202DE9F04FD1
:105CC000394C94F800E085B01EF0010F05460F46F0
:105CD0001646019365D04FEA5E03DFF8D0C0DFF8C7
:105CE000D0801CF803C088F800C00EF0FE0EBEF194
:105CF000020F16D103ABFFF7ABFE9DF80E209DF807
:105D00000C109DF80D00FFF77FFF019B6570A770D9
:105D1000E670002B45D0206805B0BDE8F04FFFF7D6
:105D2000B6BEBCF1020F01D1E678EEE7BCF1060F7A
:105D300001D16578E9E7BCF1090FFAD0BCF1190F80
:105D4000E3D1193B03F001020092C3F34603194A61
:105D5000DFF8649012F803A0DFF860B04FF000089D
:105D600099F804205FFA88F39A4202D8FFF7E2FE1E
:105D7000CBE703FB0AF0B0FBF2F0009AC0B272B9B5
:105D8000284499F80220134403EB4303C0B25B4458
:105D900032463946FFF75CFE08F10108E0E7281AB1
:105DA000EFE705B0BDE8F08F4C210020C8B30060DC
:105DB000BC120020B4B30060770C002054210020F6
:105DC000054910B44C78CA78897808340346E0B2A3
:105DD00010BCFFF773BF00BF4C2100200120FFF76C
:105DE000EFBF0000054910B44C78CA788978083CA8
:105DF0000346E0B210BCFFF761BF00BF4C2100209A
:105E00000120FFF7EFBF000010B4064CA178E27844
:105E10000831FF2928BFFF210346C9B2607810BCB2
:105E2000FFF74CBF4C2100200120FFF7EDBF000021
:105E300010B4064CA178E278083921EAE1710346F2
:105E4000C9B2607810BCFFF739BF00BF4C210020F9
:105E50000120FFF7EDBF000010B4064CE278A178F6
:105E60000832FF2A28BFFF220346D2B2607810BC56
:105E7000FFF724BF4C2100200120FFF7EDBF0000F9
:105E800010B4064CE278A178083A22EAE27203469E
:105E9000D2B2607810BCFFF711BF00BF4C210020C8
:105EA0000120FFF7EDBF0123FFF708BF0023FFF735
:105EB00005BF00002DE9F041144EDFF85480154F66
:105EC000044600253279E8B282420DD8FFF732FE4F
:105ED000A37813F0010F237914BF013303F1FF33CB
:105EE0005BB22371BDE8F081B378FF21B1FBF2F121
:105EF0002279034403EB430301FB00204344FA7877
:105F0000B978C0B2FFF7A4FD0135DBE7770C0020BC
:105F1000542100204C2100202DE9F04F83782F4E92
:105F20002F4D13F0010F85B00CBF01234FF0FF334D
:105F300001934FF0000933795FFA89F843450CD893
:105F4000FFF7F8FD019B012B2B783FD103B9337983
:105F5000013B2B7005B0BDE8F08FB2782149DFF826
:105F600088A0424402EB4202531800245C7054544F
:105F70009DF804209C70029204274FF0450B2A786C
:105F80002244D1B252B2452A1BDD92FBFBF10BFB3E
:105F9000112252B242450CD19AF803209AF802100D
:105FA0009AF8010003937A43C2F38702FFF750FD8A
:105FB000039B029A013F1444E4B2E0D109F10109C4
:105FC000B9E7002AE6DA32790A44E2E732790133A6
:105FD000B3FBF2F102FB1133BBE700BF770C0020EB
:105FE000B6120020542100204C2100202DE9F84356
:105FF0002B4C2C4DA278E07802EB42032B4400217D
:10600000904203F1030320D8274EDFF8A090DFF879
:10601000A08000272179FAB291421FD8FFF78AFDAC
:10602000224D24482A78017833780A4452B20B442E
:106030005BB2002A33702A7003DD2279013A934261
:1060400001DB49420170BDE8F883013203F8021C0C
:1060500003F8031C03F8011CD2B2D1E7B2FBF1F341
:1060600001FB1323A1780B4496F90010DBB28A429E
:1060700003EB43030EDB99F900108A420ADC98F81F
:10608000032098F8021098F801002B44FFF7E0FC79
:106090000137BFE7E9180022EA544A708A70F7E72F
:1060A000770C002054210020B5120020740C002031
:1060B0004C210020760C00202DE9F8430379DFF80D
:1060C0009880DFF8989013FB03F25A43C3F1200342
:1060D000552503FB03F1554303FB0123B5FBF3F304
:1060E000DDB2292D85BFC5F1550404EB440405EB51
:1060F000450404EBD47494BF6FEA54046FEA64045B
:106100000646E4B2002798F80420FBB29A420BD866
:10611000FFF710FD3379124AD3B9012111701278BB
:1061200013443371BDE8F8839A0798F802200D49AB
:10613000134458BFC5F1550003EB4303897854BF9E
:10614000C0B228464B442246FFF782FC0137DAE70B
:10615000202BE4D1FF21E1E7770C0020542100201F
:10616000750C00204C2100202DE9F041164FDFF87E
:106170005C80174E044600253A79AA4208DCFFF7F6
:10618000D9FC2379013303F001032371BDE8F081C9
:10619000BB7894F804C07078B1782B4403EB4303C8
:1061A000B5EB520F434407DABCF1000F07D0F27889
:1061B000FFF74EFC0135DFE7BCF1000FF7D00022FE
:1061C000FFF732FCF6E700BF770C002054210020D7
:1061D0004C2100202DE9F74F83780193454D077935
:1061E000012303710026444B1B79F4B2A34204D867
:1061F00003B0BDE8F04FFFF79DBC019B022B4FEAB7
:10620000840A07D83D4B0AEB04025878A854A91811
:106210009B784B70A7B90AEB04032B44DF709F7087
:10622000354B374A9B7823445444291903EB4303E5
:106230001344285D8A784978FFF70AFC0136D2E7D3
:106240000AEB040B05EB0B09DFF8B08099F803307B
:10625000DBB1013BDBB299F8040089F80330C3EBF2
:106260000323B3FBF0F3274898F80310DBB2C35CB9
:10627000223BDBB2C3EB0323BB20B3FBF0F3DBB267
:106280004B431B1289F80230CAE7FCF7CBF998F8A8
:1062900003305B087F334FF4017C0CFB03F3C3F343
:1062A00007239842BCDA019B022B13D9FCF7BAF9F9
:1062B000FF2390FBF3F3034405F80B30FCF7B2F92E
:1062C00098F802305B0890FBF3FC0CFB13000344CE
:1062D00089F801300AEB04022A440023937098F8ED
:1062E0000330C82B28BFC823142B38BF14231371C5
:1062F000D37095E75C110020770C00204C21002022
:1063000054210020F2B3006008B5094B1A786FF3EE
:1063100000021A701868FFF7BAFB064B00224FF410
:10632000FA705A7001F0CBFBBDE80840FFF702BCE1
:106330004C210020BC12002008B5084B1A786FF3DE
:1063400000021A70064B00224FF4FA705A7001F0E6
:10635000B6FBBDE80840FFF7EDBB00BF4C210020B5
:10636000BC120020084B00225A70084B1A784AB918
:1063700001221A70064B074A1B78C3F300031370FF
:10638000FFF7DABF704700BFBC1200205B1100208E
:106390004C210020B712002008B5084B0848197896
:1063A0000B224908FBF734FB10B9064B01225A7047
:1063B00000F0D4FD044B188008BD00BF4C21002024
:1063C0007C0C0020BC1200205411002010B5164C8B
:1063D0002378DA0726D5D8B9012262F34703237060
:1063E00011B12068FFF753FB217810480B224908B0
:1063F000FBF70EFB98B10E4B00225A700D4BA178A3
:1064000060780122DA70E278BDE81040FFF74EBDF7
:10641000292801D92922E0E760F34703DFE7FFF7E6
:10642000BBFFEBE710BD00BF4C2100207C0C00201F
:10643000BC12002054110020054B1B785B0801336F
:106440002A2B014634BF18460120FFF7BFBF00BF0B
:106450004C2100200120FFF7EFBF0000064B1B7806
:10646000C3F34603013B13F0FF03014614BF184674
:106470002920FFF7ABBF00BF4C2100200120FFF710
:10648000EDBF0121FFF7A2BF034B187840F00100D8
:1064900018704008FFF7F5BF4C210020034B1B7814
:1064A000DB0701D5FFF730BFFFF7EEBF4C2100201F
:1064B0000021FFF78BBF000038B5124D2B78FBB9D8
:1064C000FEF74EFA18B9FEF7CDFAFFF7EFFAFFF72D
:1064D000DBFA0D4C10F0FE0F206004D1FFF7E6FA56
:1064E000FFF7D2FA2060FFF7B9FA084B20780022B4
:1064F0005A70C30702D54008FFF7DAFF01232B705B
:1065000038BD00BF5A1100204C210020BC120020D1
:10651000034B187840F0010018704008FFF7C8BF1F
:106520004C210020094A012303FA00F0937849B175
:106530000343DBB2937053783BB9054B187840089E
:10654000FFF7B6BF23EA0003F4E77047BC12002050
:106550004C21002008B5064B00221A70054B1B7811
:106560000BB1FFF7D5FFBDE80840FFF715BF00BF2F
:106570005B110020B7120020314B5A782DE9F04111
:10658000002A5AD01A782F4B2F4E1B78C2EB530398
:10659000DBB2022AB3701AD12C4A2D4CD55CF378A9
:1065A0002BB10027F77000F0D9FCB780308000F0E5
:1065B000D5FC3388C01A80B247F6FE7290423CD8B0
:1065C0002B44338020482346BDE8F0411847062A73
:1065D00003D1204A204CD55CE1E7092A04D11F4AA7
:1065E0001F4C5B08D55CDAE70F2A04D11D4A1E4C0C
:1065F0005B08D55CD3E7152A03D11C4A1C4CD55C3B
:10660000CDE7182A0ED0232A0FD0242A11D1032235
:10661000B3FBF2F202EB42029B1ADBB2154A164CB4
:10662000D55CBCE7154C2825B9E7154C4FF4FA7535
:10663000B5E7144C4FF4FA65B1E7BDE8F08100BF4F
:10664000BC1200204C21002054110020B0B3006087
:106650007D5C0060BCB30060A15C0060BFB3006003
:10666000B55E0060C2B30060195F0060B9B300603E
:10667000ED5F0060C5B30060D5610060B960006087
:10668000696100601F5A006000B11047084738B5C3
:1066900004460D46FFF716FAA04207D3FFF712FA99
:1066A000A84203D2BDE83840FFF7D4BE2046BDE87B
:1066B0003840FFF7E6BE000038B58D78044625BBAC
:1066C000FEF748F845F6D6439C4200F0220014D865
:1066D00045F6C2439C4214D9A4F5B944443C122C5B
:1066E00011D8DFE804F014191C1F2225282B2E31A5
:1066F00034383D404346494B120045F65E539C42B8
:106700003FD0012501E0FFF7C9FE284638BD1E4AEB
:106710001E49FFF7B9FFF8E71C4A1B49F9E71C4A75
:106720001C49F6E71B4A1A49F3E71B4A1B49F0E7E5
:106730001A4A1949EDE71A4A1A49EAE7194A184963
:10674000E7E7194A1949E4E7184A1749E1E7012040
:10675000FFF797FED9E705210220FFF798FFD4E75E
:1067600008210620F9E70E210920F6E714210F2061
:10677000F3E717211520F0E71820E9E72221192077
:10678000EBE729212420E8E77D6400605564006080
:10679000015E0060DD5D0060515E0060295E0060AA
:1067A000A15E0060795E0060115B0060F15A0060DC
:1067B00070B505460724012606FA04F129404FF07A
:1067C00001021ED000214FF0844002F09FF92422E4
:1067D00000BF00BF00BF00BF00BF00BF013AF7D13C
:1067E00011464FF0844002F091F90E2300BF00BF24
:1067F00000BF00BF00BF00BF013BF7D1013CDBD2AF
:1068000070BD4FF0844002F081F90E2200BF00BF3E
:1068100000BF00BF00BF00BF013AF7D111464FF0E3
:10682000844002F073F9242300BF00BF00BF00BF03
:1068300000BF00BF013BF7D1E0E7062200214FF087
:10684000844002F071B90000F8B5164E3378044662
:106850000D461BB9FFF7F1FF01233370302383F39B
:1068600011880023DAB2AA4203F101070CD34FF4D6
:106870002F5300BF00BF00BF00BF00BF00BF013BE0
:10688000F7D183F31188F8BD02EB4202A618A05C91
:10689000FFF78EFF7078FFF78BFFB078FFF788FF68
:1068A0003B46DFE7BF12002038B505468878002850
:1068B00000F0288145F662539D4208D020D845F665
:1068C00015439D4216D845F601439D4217D9FEF760
:1068D00057F88D4C45F615439D4220802AD845F641
:1068E00001439D4215D82088FEF756F8FDF7ECFAD3
:1068F000002004E0A5F5B9437B3B082BE7D938BD60
:1069000045F6A6539D42E2D0A5F5BB432E3B022B94
:10691000F4E7A5F5B845033D122D45D8DFE805F0AD
:106920004E525662666A6E7480888C909CA0A4A8B1
:10693000AECAB60045F603539D420ED845F6FA435B
:106940009D42D0D9A5F5B9457C3D072D42D8DFE859
:1069500005F0457B7F6199A8BBBF45F662539D4218
:1069600000F0B880A5F5BB45263DABB20A2BBAD8DE
:106970000A2DB8D801A353F825F000BFE56A0060DE
:10698000E7680060E7680060E7680060E76800604B
:10699000E7680060E7680060E7680060B36900606E
:1069A000296A0060F56A0060237843F001032370D0
:1069B00099E7637843F00803637094E7237843F022
:1069C0000203F4E7237843F00403F0E7237843F06D
:1069D0000803ECE7637843F00103EDE7637843F0E5
:1069E0000203E9E7237843F01003E0E7237843F05C
:1069F0002003DCE7237843F04003D8E7FDF764FA8F
:106A0000237843F08003D2E7237823F00C0343F08C
:106A10000C03CCE7637823F0030343F00303CBE7D5
:106A200023786FF30003C2E763786FF3C303C3E710
:106A300023786FF34103BAE723786FF38203B6E755
:106A400023786FF3C303B2E763786FF30003B3E710
:106A500063786FF34103AFE723786FF30413A6E77E
:106A600023786FF34513A2E723786FF386139EE72D
:106A7000FDF72AFA23786FF3C71398E7237823F0FA
:106A80000C0394E7637823F0030395E72378C3F3BB
:106A9000800282F00102D2B262F3820362F3C30386
:106AA00085E76378DA4302F0010262F3000362F3E0
:106AB000410381E7FDF708FA2378C3F3C01282F09F
:106AC000010262F3C71372E70120FDF7CDFF0AE769
:106AD0000020FAE72378C3F3001282F0010262F388
:106AE000041364E72378C3F3000282F0010262F327
:106AF00000035CE76378C3F3C00282F0010262F333
:106B0000C30359E70120FAE60021002045F61643A9
:106B1000984210B50C461BD1FDF71CFEA2780D4B18
:106B200072B100F0AA00002815BF01220022352012
:106B300029201A70FDF7DEFDFDF768FE002010BD6C
:106B40001B78002B14BF35202920FDF7DBFDF3E770
:106B50000120F4E7C0120020F8B5144682789DF8B1
:106B600018701D46284B92B11C7000F0F7F9274BA6
:106B7000188004F12003DBB2072B44D804F007048B
:106B80000120A040C0B2BDE8F840FCF74ABF1E7823
:106B9000A6422ED11D4B188800F0E5F9C72828D849
:106BA000AE4205F1200415D006F12003DBB2072B1D
:106BB00006D806F007060120B040C0B2FCF73AFF45
:106BC000E3B2072B06D805F0070301209840C0B2B6
:106BD000FCF727FF3846E4B2FCF71BFF072C12D85E
:106BE00005F007050120A840BDE8F840C0B2FCF759
:106BF00021BF04F12003DBB2072B04D804F0070403
:106C00000120A040F0E7F8BDC1120020C212002010
:106C100013B545F6F74304469C4208460FD845F69F
:106C2000F3439C4212D845F6D9439C421DD045F609
:106C3000DA439C423ED045F6D8439C420FD0807840
:106C400000283BD01E4B00221A701CE0A4F5B9446A
:106C5000753C022C0ED8DFE804F0181F260026230E
:106C60000093E1231A4621460AE027230093E523F7
:106C7000E522F8E726230093E022E12345F6F441DC
