:0200000460009A
:100000004643464200000156000000000103030081
:1000100000000000000000000000000000000000E0
:1000200000000000000000000000000000000000D0
:1000300000000000000000000000000000000000C0
:1000400000000000010408000000000000000000A3
:100050000000800000000000000000000000000020
:100060000000000000000000000000000000000090
:100070000000000000000000000000000000000080
:10008000EB04180A063204260000000000000000FD
:10009000050404240000000000000000000000002F
:1000A0000000000000000000000000000000000050
:1000B0000604000000000000000000000000000036
:1000C0000000000000000000000000000000000030
:1000D00020041808000000000000000000000000DC
:1000E0000000000000000000000000000000000010
:1000F0000000000000000000000000000000000000
:10010000D8041808000000000000000000000000F3
:100110000204180804200000000000000000000095
:1001200000000000000000000000000000000000CF
:10013000600400000000000000000000000000005B
:1001400000000000000000000000000000000000AF
:10015000000000000000000000000000000000009F
:10016000000000000000000000000000000000008F
:10017000000000000000000000000000000000007F
:10018000000000000000000000000000000000006F
:10019000000000000000000000000000000000005F
:1001A000000000000000000000000000000000004F
:1001B000000000000000000000000000000000003F
:1001C000000100000010000001000000000000001D
:1001D000000001000000000000000000000000001E
:1001E000000000000000000000000000000000000F
:1001F00000000000000000000000000000000000FF
:10020000FFFFFFFFFFFFFFFFFFFFFFFFFFFFFFFFFE
:10021000FFFFFFFFFFFFFFFFFFFFFFFFFFFFFFFFEE
:10100000D100204000180060000000000000000037
:1010100020100060001000600000000000000000D0
:0C1020000000006000001F000000000045
:10102C00FFFFFFFFFFFFFFFFFFFFFFFF7EFFFFFF45
:1014000000040020E9180060EB180060EB18006091
:10141000EB180060EB180060EB180060EB18006040
:10142000EB180060EB180060EB1800607F7900603B
:10143000EB180060EB180060EB180060558D006041
:10144000EB180060EB180060EB180060EB18006010
:10145000EB180060EB180060EB180060EB18006000
:10146000EB180060EB180060EB180060EB180060F0
:10147000EB180060EB180060EB180060EB180060E0
:10148000EB180060EB180060EB180060EB180060D0
:10149000EB180060EB180060EB180060EB180060C0
:1014A000EB180060EB180060EB180060EB180060B0
:1014B000EB180060EB180060EB180060EB180060A0
:1014C000EB180060EB180060EB180060EB18006090
:1014D000EB180060EB180060EB180060EB18006080
:1014E000EB180060EB180060EB180060EB18006070
:1014F000EB180060EB180060EB180060EB18006060
:10150000EB180060EB180060EB180060EB1800604F
:10151000EB180060EB180060EB180060EB1800603F
:10152000EB180060EB180060EB180060EB1800602F
:10153000EB180060EB180060EB180060EB1800601F
:10154000EB180060EB180060EB180060EB1800600F
:10155000EB180060EB180060EB180060EB180060FF
:10156000EB180060EB180060EB180060EB180060EF
:10157000EB180060EB180060EB180060EB180060DF
:10158000EB180060EB180060EB180060EB180060CF
:10159000EB180060EB180060EB180060EB180060BF
:1015A000EB180060EB180060EB180060EB180060AF
:1015B000EB180060EB180060EB180060EB1800609F
:1015C000EB180060EB180060EB180060EB1800608F
:1015D000EB180060EB180060EB180060EB1800607F
:1015E000EB180060EB180060EB180060EB1800606F
:1015F000EB180060EB180060EB180060EB1800605F
:10160000EB180060058F0060EB180060EB180060BD
:10161000EB180060EB180060EB180060EB1800603E
:10162000EB180060EB180060EB180060EB1800602E
:10163000EB180060EB180060EB180060EB1800601E
:10164000EB180060EB180060EB180060EB1800600E
:10165000EB180060EB180060EB180060EB180060FE
:10166000EB180060EB180060EB180060EB180060EE
:10167000EB180060EB180060EB180060EB180060DE
:10168000EB180060EB180060EB180060EB180060CE
:10169000EB180060EB180060EB180060EB180060BE
:1016A000EB180060EB180060EB180060EB180060AE
:1016B000EB180060EB180060EB180060EB1800609E
:1016C000000000000000000000000000000000001A
:1016D000000000000000000000000000000000000A
:1016E00000000000000000000000000000000000FA
:1016F00000000000000000000000000000000000EA
:1017000000000000000000000000000000000000D9
:1017100000000000000000000000000000000000C9
:1017200000000000000000000000000000000000B9
:1017300000000000000000000000000000000000A9
:101740000000000000000000000000000000000099
:101750000000000000000000000000000000000089
:101760000000000000000000000000000000000079
:101770000000000000000000000000000000000069
:101780000000000000000000000000000000000059
:101790000000000000000000000000000000000049
:1017A0000000000000000000000000000000000039
:1017B0000000000000000000000000000000000029
:1017C0000000000000000000000000000000000019
:1017D0000000000000000000000000000000000009
:1017E00000000000000000000000000000000000F9
:1017F00000000000000000000000000000000000E9
:08180000001020207188006037
:1018100072B6264880F30888254880F30988254851
:1018200025490860022080F31488BFF36F8F05F00C
:1018300043FE05F085FD4FF0553020491B4A91428B
:101840003CBF41F8040BFAE71D49194A91423CBFDD
:1018500041F8040BFAE71B491B4A1C4B9A423EBF56
:1018600051F8040B42F8040BF8E700201849194A14
:1018700091423CBF41F8040BFAE705F05BFE06F02D
:1018800001FC154C154DAC4203DA54F8041B884793
:10189000F9E703F0C9FD124C124DAC4203DA54F8DB
:1018A000041B8847F9E705F043BE00000004002050
:1018B000000C00200014006008ED00E00000002093
:1018C000000400203CBB0060000C0020900E0020B3
:1018D000001000208C230020081800600818006009
:1018E000081800600818006092E700F000F8FEE7B2
:1018F0002DE9F04FC1F80CD0D0F80CD0BDE8F08F36
:10190000002383F311882846A047002006F00EF834
:10191000FEE705F065FF00DFFEE7000053B94AB9B6
:10192000002908BF00281CBF4FF0FF314FF0FF30E7
:1019300000F00CB8ADF1080C6DE904CE08F002FD22
:10194000DDF804E0DDE9022304B07047704700BF12
:1019500008B5062000F0BAFE012006F0C1FB00BF6A
:1019600000B50A4C2668054685B01C46F06852B1A1
:10197000074B0091CDE9013206492B46224600F083
:1019800021F8FFF7E5FF044B1A46F2E7000C0020B0
:10199000B8BA0060C8BA0060C4BA006008B513469F
:1019A0000022FFF7DDFF00BF0CB400B583B004AB2D
:1019B00053F8042B019300F091FA03B05DF804EBA7
:1019C00002B070470EB410B583B005AB064C53F8A7
:1019D000042B01930146206800F080FA03B0BDE8B3
:1019E000104003B0704700BF000C0020024B0146BE
:1019F000186800F0CDB900BF000C0020024B014672
:101A0000186800F06FB900BF000C00200000000053
:101A100001F0FF01102A2BDB10F0070F08D010F89F
:101A2000013B013A8B422DD010F0070F42B3F6D1A3
:101A3000F0B441EA012141EA014122F007047FF0BC
:101A400000070023F0E80256083C85EA010586EA13
:101A5000010685FA47F5A3FA87F586FA47F6A5FA4F
:101A600087F68EB9EED1F0BC01F0FF0102F007025B
:101A700032B110F8013B013A83EA010313B1F8D106
:101A80000020704701387047002D06BF35460338E7
:101A9000073815F0010F07D1013015F4807F02BF20
:101AA000013015F4C03F0130F0BC0138704700BF71
:101AB000032A70B412D940EA0105AD0704460B466B
:101AC00020D11946204653F8045B54F8046BAE420B
:101AD00018D1043A032A20461946F2D8541E72B18E
:101AE00003780A789A4208BF241806D00CE010F850
:101AF000013F11F8012F934206D1A042F7D10020F7
:101B000070BC7047541EEBE7981A70BC704700BF5A
:101B1000844641EA000313F003036DD1403A41D3F8
:101B200051F8043B40F8043B51F8043B40F8043BB7
:101B300051F8043B40F8043B51F8043B40F8043BA7
:101B400051F8043B40F8043B51F8043B40F8043B97
:101B500051F8043B40F8043B51F8043B40F8043B87
:101B600051F8043B40F8043B51F8043B40F8043B77
:101B700051F8043B40F8043B51F8043B40F8043B67
:101B800051F8043B40F8043B51F8043B40F8043B57
:101B900051F8043B40F8043B51F8043B40F8043B47
:101BA000403ABDD2303211D351F8043B40F8043BE7
:101BB00051F8043B40F8043B51F8043B40F8043B27
:101BC00051F8043B40F8043B103AEDD20C3205D3F7
:101BD00051F8043B40F8043B043AF9D2043208D0EF
:101BE000D2071CBF11F8013B00F8013B01D30B8861
:101BF00003806046704700BF082A13D38B078DD03F
:101C000010F003038AD0C3F10403D21ADB071CBF10
:101C100011F8013B00F8013B80D331F8023B20F87A
:101C2000023B7BE7043AD9D3013A11F8013B00F8B3
:101C3000013BF9D20B7803704B7843708B7883703B
:101C400060467047F0B4860746D0541E002A3CD048
:101C5000CAB2034602E014F1FF3436D303F8012B75
:101C60009D07F8D1032C29D9CDB245EA05250F2CC3
:101C700045EA054533D9A4F11006360903F12007DA
:101C800007EB061703F1100242E9045542E9025539
:101C90001032BA42F8D1721C14F00C0F03EB02128E
:101CA00004F00F0613D0331F23F00303043313444F
:101CB00042F8045B9342FBD106F003042CB1C9B295
:101CC0001C4403F8011B9C42FBD1F0BC7047344616
:101CD0001346002CF3D1F8E714460346C2E71A4630
:101CE0002646E0E700293CD038B551F8043C0C1FEB
:101CF000002BB8BFE418054601F00CFB234B1A6813
:101D00002AB1A2420DD921686018824223D06260B4
:101D100028461C60BDE8384001F002BBA34203D84E
:101D20001A465368002BF9D111685018A04219D0F7
:101D300024D821686018834206D063605460284626
:101D4000BDE8384001F0ECBAD3E900030144636018
:101D500021605460F3E7D2E900020144626021602F
:101D6000D6E7704720680144501883421160E6D1DD
:101D7000D3E90003014453601160E0E70C232B60BA
:101D80002846BDE8384001F0CBBA00BF0010002063
:101D9000F8B5CD1C25F0030508350C2D38BF0C25F2
:101DA000002D064633DBA94231D82A4F01F0B2FAA2
:101DB0003A6852B113685B1B04D43FE023685B1B95
:101DC00029D522465468002CF8D1796800293BD0E7
:101DD0002946304606F069F9431C28D0C41C24F07B
:101DE0000304A04205D0211A304606F05EF9013006
:101DF0001DD02560304601F093FA04F10B0020F06D
:101E00000700231DC21A01D01B1AA350F8BD0C22D3
:101E100032600020F8BD0B2B05D8A242636811D0B8
:101E20005360E7E7144623601C442560E2E70C2377
:101E30003046336001F074FA0020F8BD0B2BF1D866
:101E4000536814463B60D5E7304606F02EF97860BB
:101E5000BEE700BF001000209368013B002B936099
:101E60000FDA10B49469A34208DB0A2906D013687C
:101E7000581C10601970084610BC704710BC00F068
:101E80005DBC1368581C106019700846704700BF8D
:101E90009BB1F8B513440F4606465D1E541E01E083
:101EA000AC4208D03A4614F8011F3046FFF7D4FF81
:101EB000431CF5D1F8BD0020F8BD0020704700BFDD
:101EC000936810B5144613B95360184610BD00F05E
:101ED00059FF0023C4E9013310BD00BF2DE9F04FC5
:101EE0009FB08B4690461C46039018B18369002B27
:101EF00000F0C580B34B9B4500F0C780B24B9B45BB
:101F000000F0C780B14B9B4504BF039BD3F80CB0D6
:101F1000DBF86430BBF80C20DB0702D4970540F1F6
:101F20004381160740F12781DBF81030002B00F0C9
:101F3000228130238DF8323098F80030059400214A
:101F400020220B91A24E8DF831200127002B00F0AA
:101F50008580252B00F00D81454603E0252B00F000
:101F60009C8025466B786C1C002BF7D1B4EB080ADB
:101F700074D04246534659460398FFF789FF013013
:101F80006CD00B9B6A7853440B93002A66D00023D5
:101F90004FF0FF3201340693CDE908338DF85B3002
:101FA0001C93079205E0069A07FA03F313432C46A5
:101FB00006932546052215F8011B3046FFF728FD3C
:101FC000AA46831B0028EED1069BD80644BF2022D8
:101FD0008DF85B201907217844BF2B228DF85B20F8
:101FE0002A295FD1059A1168043200290592C0F2AE
:101FF000958009916178A51C2E296CD0754C03221F
:102000002046FFF705FD00287ED0001B069B4024DC
:1020100004FA00F00343069305F1010829786E489D
:102020008DF830100622FFF7F3FC00287CD06B4BB4
:10203000002B6CD005AB00935A46694B039806A958
:10204000AFF300808146B9F1FF3F07D00B9B4B44B3
:102050000B9398F80030002B7FF47BAFDBF86430F3
:1020600013F0010FBBF80C3002D19A0540F1A380A8
:102070005B0600F193800B981FB0BDE8F08F00F075
:1020800069FD504B9B457FF439AF039BD3F804B0F7
:102090003EE7039BD3F808B03AE7B4EB080A3FF4F5
:1020A00076AF66E7A1F13002092A88BFA246A3D81D
:1020B000099B01E02C460135297803EB830302EBF1
:1020C0004303A1F13002092AAA46F3D92E2904F1CB
:1020D0000205099392D19AF801102A292ED1059B65
:1020E0009AF802101A6807920433002A05930AF13D
:1020F00003050AF1020337DB364C032220469A46D9
:10210000FFF786FC002880D1A846554686E7059B48
:10211000073323F007030833059397E7494243F059
:1021200002030991069365E705AB00935A462C4BD1
:10213000039806A900F0F8F8814684E7A1F130027F
:102140000023092A079301D92BE05546697803EB50
:10215000830302EB4303A1F13002092A05F1010ACE
:10216000F3D90235079349E74FF0FF329A460792B9
:1021700044E744460BE75946039800F03FFB00282C
:102180003FF4D7AEDBF86430DD0707D4BBF80C3082
:102190009C0503D4DBF8580000F0DAFF4FF0FF3065
:1021A0006AE7AA46013529E7DBF8580000F0C8FFC6
:1021B000BBF80C20B5E6DBF8580000F0C9FFBBF80F
:1021C0000C3055E744A7006024A7006004A7006016
:1021D000F8BA006000BB006004BB006000000000B3
:1021E000911E006010B4044C13460A460146206854
:1021F00010BCFFF773BE00BF000C00202DE9F047B4
:102200000C4691460A698968DDF820808A42B8BF89
:102210000A46C9F8002094F8431006461F4611B13B
:102220000132C9F80020236899065CD5D9F800204E
:102230000232C9F80020236813F0060F19461DD199
:10224000E1688A1A002AD8BF194617DD04F1190A75
:10225000002505E0E368D9F800209B1AAB420CDDAD
:102260000123524639463046C047013005F1010589
:10227000F0D14FF0FF30BDE8F087216894F843308B
:10228000003318BF01238A060AD5E1185A1C3020F2
:1022900081F84300224494F8451082F84310023339
:1022A00004F1430239463046C0470130E1D023688B
:1022B000A268216903F00603042B1DD08A4226DDA3
:1022C0004FF00009521A91441A34002501E04D459F
:1022D0001DDA0123224639463046C047013005F158
:1022E0000105F4D1C5E713F0060F13D094F843307D
:1022F000003318BF0123D3E7D9F80000E3688A420E
:10230000A3EB000323EAE379DCDC002BDCDC002018
:10231000BDE8F087E168D9F800208A1A002AD8BF02
:10232000194693DCAAE700BF2DE9F0430C46097E6D
:1023300085B06E29064617460C98984604F1430E60
:102340006DD039D9732900F0F68044D9752900F091
:102350000481782940F0118178232268DFF858C27F
:1023600084F845300168150651F8043B016040F1DE
:10237000A180D10744BF42F020022260002B00F070
:1023800093801022002184F843106068A060002828
:10239000C0F2C880216821F004012160002B40F0C8
:1023A000A380002840F0C0807546082A00F0AC8069
:1023B000AEEB0503236141E0632900F0E5801AD804
:1023C000002938D0582940F0D88084F84510226878
:1023D000DFF8E8C1C6E76F2900F0BF80702940F040
:1023E000CC802268DFF8D0C142F02002782322603E
:1023F00084F84530B6E7642902D0692940F0BD80F1
:1024000022680368110603F1040557D519680560B1
:102410000B46002959DBDFF8A4C10A22B5E703689F
:10242000226861691D1D056015061B6802D45006EF
:1024300000F1BD801960002375462361CDF800804E
:102440003B4603AA21463046FFF7D8FE013020D094
:102450002A46236939463046C047013019D02268E0
:102460000398E368920719D51A1A002A16DD04F1B9
:102470001909002504E0E36803981A1AAA420DDD41
:1024800001234A4639463046C047013005F101056F
:10249000F1D14FF0FF3005B0BDE8F0839842B8BFEE
:1024A000184605B0BDE8F083226822F020022260C1
:1024B000102267E7500648BF9BB25AE75106A5D5E0
:1024C000B3F9003005601946A3E76168A1602D20CB
:1024D0000029C3F1000384F8430002DB22F0040268
:1024E0002260DFF8D8C00A22754600E00B46B3FB35
:1024F000F2F102FB113093421CF8000005F8010DC7
:10250000F4D2082A7FF454AF2368DB077FF550AF7D
:10251000626823699A423FF74BAF302305F8013CCC
:10252000013D45E7002BDFD19CF8003084F84230B4
:1025300004F1420539E703686268191D01601D68EE
:1025400000212846FFF764FA002832D0401B606063
:102550002061002384F8433070E72268036812F09A
:10256000800F03F104051AD01B6805606F290CBFAA
:1025700008220A22DFF844C004E7012384F842104D
:10258000236104F14205E4E703681A68191D012379
:10259000016004F1420584F842202361D9E712F07A
:1025A000400F0DBF1B6805601B880560DEE71980C2
:1025B00041E76068CCE700BF20BB00600CBB006057
:1025C00010B580210446FFF7E3FB606440B1031FB0
:1025D00000227C3043F8042F8342FBD1002010BD41
:1025E0004FF0FF3010BD00BF436C0BB100207047AF
:1025F000E6E700BF1F2970B5054608D8436C1646AC
:102600000C464BB153F8240043F8246070BD1622E9
:1026100002604FF0FF3070BDFFF7D2FF08B96B6C5E
:10262000F0E74FF0FF3070BD1F2938B521D8426C5C
:1026300005460C466AB152F8213053B1012B16D031
:10264000591C10D00025204642F8245098472846AF
:1026500038BD284600F070F8224601462846BDE8FD
:10266000384000F055B816230360012038BD002023
:1026700038BD162303604FF0FF3038BD1F2921D825
:1026800038B5436C05460C4683B153F8242003EB60
:1026900084034AB1511C10D0012A0CD000252046D9
:1026A0001D609047284638BD012038BDFFF788FFE0
:1026B00028B96B6CE9E7032038BD022038BD4FF024
:1026C000FF3038BD4FF0FF30704700BF024B01466E
:1026D0001868FFF7A9BF00BF000C0020024B0A4694
:1026E00001461868FFF786BF000C0020034B1868EE
:1026F000436C0BB10020704762E700BF000C002064
:10270000024B01461868FFF7B9BF00BF000C00205C
:1027100038B50B46074C0546114618460023236082
:1027200005F0E6FC431C00D038BD2368002BFBD02D
:102730002B6038BD8823002005F0E2BCF8B50D46BB
:102740001446064608B1836943B3254B9C422AD000
:10275000244B9C4229D0244B9C4208BFF468A38997
:10276000A269A2601A0722D5236903B322686169AE
:10277000D31AEDB299422F4629DD0133A168501CCE
:102780000139A1602060157062699A4216D0A38950
:10279000DB0701D50A2D11D03846F8BD00F0DAF973
:1027A0000F4B9C42D4D17468D9E7B468D7E721466F
:1027B000304600F023F838B92369D7E72146304680
:1027C00000F032F90028E7D04FF0FF37E4E7214668
:1027D000304600F029F90028F6D122680123CDE720
:1027E00044A7006024A7006004A70060024B0A46CB
:1027F00001461868FFF7A2BF000C00203B4B70B5E4
:102800001D6806460C460DB1AB69DBB1384B9C42E6
:102810001ED0384B9C424AD0374B9C4208BFEC68D4
:10282000B4F90C2093B2190718D5206908B313F036
:1028300001022CD0636900225B42A361A26060B3F5
:10284000002070BD284600F085F9294B9C42E0D15C
:102850006C68B4F90C2093B21907E6D4DD063CD5B8
:10286000580726D4206942F00803A3819BB20028B0
:10287000DDD103F42072B2F5007FD8D03046214676
:1028800000F096FCA389206913F00102D2D19907C8
:1028900058BF6269A2600028D2D1B4F90C301A0680
:1028A000CFD543F04003A3814FF0FF3070BDAC683B
:1028B000B6E7616B51B104F14403994204D030464C
:1028C000FFF710FAB4F90C2000236363002320699A
:1028D000636022F024022060C5E742F04002092331
:1028E00033604FF0FF30A28170BD00BF000C0020AC
:1028F00044A7006024A7006004A700608B891A0722
:102900002DE9F0410C46804641D44A68002A59DD41
:10291000E66A002E53D00022D8F80050216AC8F889
:10292000002013F4805251D101234046B047431C8C
:102930005FD0A389E66A216A5F0705D56268636B89
:10294000801A0BB1236CC01A024600234046B047E0
:10295000461C45D1D8F80030B4F90C20002B55D0D6
:102960001D2B01D0162B5AD123690022C4E9003255
:10297000616BC8F8005011B304F14403994202D0CE
:102980004046FFF7AFF900206063BDE8F0810E69B3
:10299000AEB10D680E6099070CBF63690023AD1BD3
:1029A000A3600AE02B463246A76A216A4046B84730
:1029B0000028A5EB000506440ADD002DF2DC00200E
:1029C000BDE8F0810A6C002AA2DCF8E7606DB3E78D
:1029D000A38943F04003A3814FF0FF30BDE8F081AD
:1029E0002269A389226000226260DA04C0D5606592
:1029F000BEE7D8F80030002B9BD01D2B0CD0162B37
:102A00000AD0A38943F04003A381D9E72169C4E92F
:102A10000013D304ACD5EAE7C8F80050CFE742F082
:102A20004002A281CCE700BF38B50B691BB30C464E
:102A3000054608B183691BB3184B9C421ED0184B46
:102A40009C4220D0174B9C4208BFEC68B4F90C3074
:102A50008BB1626ED00701D4990516D52846214660
:102A6000FFF74CFF636EDA07054602D4A3899B0586
:102A70000FD5284638BD0025284638BD6C68E5E7E7
:102A800000F068F8D8E7AC68E0E7A06D00F058FB0C
:102A9000E4E7A06D00F05CFBEBE700BF44A700603B
:102AA00024A7006004A7006020B1054B0146186808
:102AB000FFF7BABF034B0449186800F00DBB00BF15
:102AC000000C002000A70060292A0060014900F0E6
:102AD00003BB00BF292A006008B5436EDA0702D4A1
:102AE00083899B0501D5002008BD806D00F028FB7F
:102AF000002008BD08B5436EDA0702D483899B0520
:102B000001D5002008BD806D00F022FB002008BD2B
:102B100070B54A1E682505FB02F50E4605F17401E5
:102B2000FFF736F9044640B100210C30666005F12C
:102B300068022160A060FFF785F8204670BD00BFE5
:102B4000024B0349186800F0C7BA00BF00A7006035
:102B5000292A00602DE9F84F05463A4800F0F0FABE
:102B6000AB69002B68D1384A2B6512683749A962D6
:102B7000AA42C5E9123304BF0123AB61284600F025
:102B800073F86860284600F06FF8A860284600F0E7
:102B90006BF86E68E86000240423F3607466C6E98D
:102BA0000044B460C6E90444B461214606F15C0007
:102BB0000822FFF747F8DFF8A0B0AF68DFF89CA065
:102BC000DFF89C90DFF89C80214BC6F83080C6E986
:102BD000086BC6E90AA92146FB607C66C7E9004488
:102BE000BC60C7E90444BC6107F15C000822FFF740
:102BF00029F8EE68174BC7F83080C7E9087BC7E9AA
:102C00000AA92146F3607466C6E90044B460C6E9C7
:102C10000444B46106F15C000822FFF713F80123B5
:102C2000C6E9086BC6E90AA9C6F830800548AB6159
:102C3000BDE8F84F00F08CBA0248BDE8F84F00F04C
:102C400087BA00BF7023002000A70060CD2A006073
:102C5000090001001200020079330060A133006016
:102C6000E13300600134006070B50646244800F08E
:102C700067FA244B1D68AB697BB34835D5E901344D
:102C8000013B05D525E0013B5A1C04F1680420D026
:102C9000B4F90C20002AF6D100251B4BE36004F1A7
:102CA0005800656600F044FA154800F051FA2560B6
:102CB000C4E90155C4E90455A5612946082204F177
:102CC0005C00FEF7BFFFC4E90D55C4E9125520466C
:102CD00070BD2C682CB12546D0E72846FFF73AFF97
:102CE000CBE704213046FFF713FF04462860002895
:102CF000F1D1034800F02CFA0C233360E7E700BF62
:102D00008423002000A700600100FFFF014800F0BD
:102D100017BA00BF84230020014800F019BA00BF91
:102D200084230020014800F00BBA00BF702300206C
:102D3000014800F00DBA00BF7023002008B5054817
:102D400000F0FEF9044B05491868BDE8084000F0A2
:102D50009DB900BF84230020000C0020D92A006008
:102D600008B5054B0549186800F090F90448BDE81E
:102D7000084000F0EDB900BF000C0020F52A00600B
:102D8000842300209368002B00F002812DE9F04F8E
:102D9000B1F90C309BB20C46190783B082469046BD
:102DA00035D522699AB313F00202D8F800603DD0FD
:102DB0000027D4F828B0D4F820C0DFF8CC923D46E4
:102DC0004D452B463A4628BF4B4661465046D5B145
:102DD000D847002840F3D280D8F808301B1A07449F
:102DE0002D1AC8F80830002B00F0B780D4F820C0A6
:102DF000D4F828B04D452B463A4628BF4B4661468D
:102E00005046002DE4D1D6E900750836D8E72146B2
:102E10005046FFF7F3FC002840F03081B4F90C3045
:102E2000D8F800609BB213F00202C1D113F001097F
:102E300040F0B080A76820684D46002D54D09A0518
:102E400040F1BC80AF42BB4600F2E78013F4906FC4
:102E50002FD0D4E9041707EB4707A0EB010B07EBD2
:102E6000D777681C7F105844B8423A4684BF07465B
:102E70003A465B0540F1E98011465046FEF788FF6F
:102E8000002800F0F5805A4621690190FEF740FEC7
:102E9000A289019B22F4906242F08002A281A7EBFA
:102EA0000B0203EB0B00676123612060A2602F46D9
:102EB000AB465A46494600F0C5F9A2682368D21BC2
:102EC0005B442F46A26023600025D8F80830DB1B46
:102ED000B944C8F80830002B3FD0B4F90C30A768CB
:102EE00020689BB2002DAAD1D6E900950836A4E748
:102EF0000BF1080353E902679B460833002FF9D012
:102F00003A460A213046FEF783FD002853D00130AF
:102F1000A0EB06094B46D4E904122068BB4228BF47
:102F20003B46884203D9A5681544AB4219DC9A4256
:102F30007DDC1346A56A216A32465046A847051E25
:102F40001CDDB9EB05096BD00120D8F808305B1BFC
:102F50002E447F1BC8F8083013BB002003B0BDE827
:102F6000F08F31462A4600F06DF923682B44236028
:102F700021465046FFF758FD0028E2D0B4F90C3046
:102F800043F040034FF0FF30A38103B0BDE8F08F62
:102F90000020704733469146104617464E469B46E2
:102FA000002FA5D00028B5D13A460A213046FEF7B9
:102FB0002FFD0028ABD17B1C9946ACE723698342E7
:102FC00015D36169A94212D82E4BA76A9D4294BFBE
:102FD0002B466FF000434A4693FBF1F3504601FB4A
:102FE00003F3216AB847071EC8DDED1B6DE7AF424A
:102FF00028BF2F463A46494600F024F9A3682268C4
:10300000DB1B3A44A3602260002BEED121465046E0
:10301000FFF70AFD0028E8D0B0E72F46AB4648E7A7
:1030200021465046FFF700FD00288ED0A6E71A463D
:103030003146019300F006F9019BA1682268C91A84
:103040001A44A16022601D467BE7504600F06EF9ED
:10305000034600287FF423AF21695046FEF742FE65
:10306000B4F90C300C2223F08003CAF8002087E763
:103070000C23CAF80030B4F90C3081E74FF0FF3070
:103080006CE700BFFEFFFF7F00FCFF7F2DE9F041F2
:1030900010F148071BD088460026D7E90154013DAE
:1030A0000FD4A389012B05F1FF3506D9B4F90E30F1
:1030B0000133204601D0C04706436B1C04F168046D
:1030C000EFD13F68002FE8D13046BDE8F0813E46A1
:1030D0003046BDE8F08100BF2DE9F84310F1480704
:1030E0001FD0884606464FF00009D7E90154013D3C
:1030F00011D4A389012B05F1FF3508D9B4F90E309D
:1031000001332146304602D0C04749EA00096B1C12
:1031100004F16804EDD13F68002FE6D14846BDE8D0
:10312000F883B9464846BDE8F88300BF704700BF42
:10313000704700BF704700BF704700BF704700BFB7
:10314000704700BF0120704701207047704700BFE3
:10315000704700BF70B50C46B1F90E10002996B04B
:1031600016461D4613DB6A4604F0ACFF00280EDB52
:10317000019A02F47042A2F50052B2FA82F25209A8
:103180004FF4806300202A60336016B070BDA389BD
:1031900000221B062A6004D540230020336016B0AD
:1031A00070BD4FF480630020336016B070BD00BF67
:1031B0008A8992070B4606D501F1470201211A6060
:1031C000C3E90421704770B582B001AB6A460C4672
:1031D0000646FFF7BFFF009905463046FEF7D8FDCB
:1031E000B4F90C3070B11649B162019A00992060AF
:1031F00043F08003A381C4E904018AB92B43A3816E
:1032000002B070BD9A05FBD423F0030304F147021A
:1032100043F002030121A3812260C4E90421EFE706
:103220003046B4F90E1004F059FF10B9B4F90C305F
:10323000E4E7A38923F0030343F001031BB2DDE7B6
:10324000CD2A00608842F0B40DD98B1883420AD988
:10325000841832B1224613F8014D02F8014D99420B
:10326000F9D1F0BC70470F2A0ED80346541E002A2D
:10327000F7D001340C44013B11F8012B03F8012F66
:10328000A142F9D1F0BC704740EA01039B073BD152
:10329000A2F110073F0901F1200606EB071601F124
:1032A000100300F1100453F8105C44F8105C53F85C
:1032B0000C5C44F80C5C53F8085C44F8085C53F868
:1032C000045C44F8045C1033B34204F11004EAD106
:1032D0007B1C1B0112F00C0F194402F00F05034474
:1032E00015D0043DAD0803EB850C1C1F0E4656F8A7
:1032F000047B44F8047F6445F9D10135AD002B44CB
:10330000294402F00302B1E7541E0346B1E72A46FE
:10331000ACE700BF0148FFF713BF00BF74230020D4
:103320000148FFF715BF00BF7423002009B3F8B5AB
:103330001446CAB106460D4600F066F8A04202D314
:103340002F463846F8BD21463046FEF721FD074698
:103350000028F6D022462946FEF7DAFB30462946F9
:10336000FEF7C0FC3846F8BD2746FEF7BBFC3846E2
:10337000F8BD1146FEF70CBD10B50C46B1F90E10A4
:1033800004F088FE002803DB636D0344636510BD11
:10339000A38923F48053A38110BD00BF0020704790
:1033A0002DE9F0411646B1F90C201F46D3050C4615
:1033B0000546B1F90E1009D422F48052A2813B4691
:1033C00032462846BDE8F04104F06BBE00220223DD
:1033D00004F065FEB4F90C20B4F90E10ECE700BF60
:1033E00010B50C46B1F90E1004F059FEA389421C29
:1033F0000EBF23F4805343F480536065A38110BD56
:10340000B1F90E1004F04FBE51F8043C181F002B08
:10341000BCBF0B58C018704710B50A4C01F05EFED7
:10342000204606220D2105F0BBFA204601220D217F
:1034300005F0A8FA20460022BDE810400D2105F055
:10344000A1BA00BF00400042044A506842F6DF6162
:1034500053681B1A8B42FBD9704700BF001000E075
:1034600008B545F6B85398420ED845F6B153984280
:103470000ED9A0F5BB4033388B7805280AD8DFE891
:1034800000F01E29343F495045F6DC5398424ED097
:10349000012008BD4BB1E12000F026FAF32000F036
:1034A00023FAED2000F020FAF2E7ED2000F09CFA7C
:1034B000F32000F099FAE12000F096FAE8E73BB13A
:1034C000E12000F011FAF32000F00EFAEE20E9E717
:1034D000EE20EBE73BB1E12000F006FAF32000F02C
:1034E00003FAEF20DEE7EF20E0E73BB1E12000F058
:1034F000FBF9F32000F0F8F9F020D3E7F020D5E74E
:10350000002BC5D00E4B9A78FF2A14BFFF22002251
:103510009A70BDE7002BBBD0094A137901331371B0
:10352000B6E7002BB4D0064A1379013BF7E78B7856
:10353000002BADD003480F2103F002F9A8E700BF2C
:103540005421002064A70060024B034A1A6002F075
:10355000BBBD00BF701100205CB3006010B501213D
:10356000044600F0AAFD0146012002F0FBFD022105
:10357000204600F0A2FD0146022002F0F3FD0321E7
:10358000204600F09AFD0146032002F0EBFD0421E5
:10359000204600F092FD0146042002F0E3FD0521E3
:1035A000204600F08AFD0146052002F0DBFD2046A2
:1035B00010BDA0F58073B3F5F85F10B526D210F4F6
:1035C000805F00F4807300F4007400F4806100F404
:1035D00000620DD0002B0CBF002010200CB140F079
:1035E000200009B140F040000AB140F0800010BD59
:1035F000181E18BF01200CB140F0020009B140F0C4
:103600000400002AF3D040F00800F0E70020EEE7C5
:1036100010B50C46FFF7CDFF2346BDE81040184714
:10362000A0F1E003072B10B5044600D940B90549C5
:103630002046FFF7EDFFE0B2BDE8104000F054B9BE
:103640000149F6E7D33A0060493F006010B50446EF
:10365000C0B200F0C9F9A4F1E003072B00D92CB9DE
:1036600003492046BDE81040FFF7D2BF0149F8E703
:10367000E53A00605B3F00600120704708B5FFF746
:10368000EFFE08BD704708B5FFF7FCFF08BD00005E
:1036900013B502AB03E903000F4B1B78B3B99DF8D8
:1036A000023073B16AB100F0B5FD044601460098DE
:1036B00000F07AFD0099204602B0BDE8104001F00C
:1036C000C3BB009800F08CFD0446F3E7009800F0BF
:1036D000A1FD0099F0E700BF0D100020034610B4D3
:1036E00000885C880A4640EA0440998810BCFFF7CD
:1036F000CFBF0120704710B500210446FFF7EEFF51
:103700002146FFF7C0FF10BDFFF786BE01F0E8BC01
:10371000704708B500F042FCFFF7FAFFBDE808402B
:1037200040F6C41004F007B908B5FFF7F2FFBDE892
:10373000084003F05BBB08B5FFF7EBFFBDE80840AE
:1037400003F05BBB38B501210546FFF7C7FF2946EB
:10375000044603F075F929462046FFF78FFF08B9A4
:10376000002038BD2946204603F088F90028F7D00C
:103770002946204603F0B2F80028F1D02946204619
:1037800002F074FE0028EBD02946204603F024F80E
:103790000028E5D02946204602F07EFD0028DFD033
:1037A000AB787BB145F65C539C4226D00ED845F6EB
:1037B000DF439C4218D045F65B539C421AD0B4F5C7
:1037C000B84F0ED02846FFF757FFCAE745F65D53BE
:1037D0009C420CD045F6A8539C42F3D1FFF7ABFFB7
:1037E000BEE7FFF7A1FFBBE701F0AEF9F6E701F096
:1037F0000DF9E7E701F016F9E4E701F016F9E1E762
:1038000008B503F05CFA00F021F8BDE8084002F0CA
:10381000C9BB08B500F01FF802F0C4FCBDE80840C1
:1038200003F052BA704708B5FFF7FCFF08BD01204E
:10383000704708B5FFF7FBFF08BD704710B5044699
:10384000FFF7F1FF2046FFF7F4FF10BD08B5002099
:10385000FFF7F4FF08BD08B503F076F9FFF7EEFFB8
:1038600008BD000010B503F06FF9074B1A788242CB
:10387000044607D0187003F079FA044B186020460C
:10388000FFF7DCFF10BD00BF0C1000200810002067
:1038900030B587B06C4684E803009DF80230BDF86F
:1038A00004500BB100F0F4FF0023ADF8163094E89B
:1038B000030004AC0490ADF8141094E803000290E7
:1038C0004DB1BDF808204FF6FF739A4203D0204651
:1038D000FFF70FFF18B194E8030000F009FF07B0ED
:1038E00030BD008800F0B8BC10B50446002876D082
:1038F000822813D103F028F9810770D4392000F011
:1039000065FF00F0F5FF4FF4487004F014F839201B
:1039100000F064FFBDE8104000F0EABF83280ED13C
:1039200003F012F9C2075AD4532000F04FFF00F001
:10393000DFFF4FF47A7003F0FEFF5320E8E784289E
:103940000ED103F001F9430749D4472000F03EFFB0
:1039500000F0CEFF4FF47A7003F0EDFF4720D7E779
:10396000031FDBB2A02B0ED81D4B0146186803F0D5
:1039700033F920B1204600F031FF00F0B9FF2046B6
:1039800000F024FFC6E700F12003DBB2072B07D8C5
:1039900000F007040120A040C0B200F04DFFB9E7DD
:1039A00000F15B03DBB2022B05D82438BDE81040E0
:1039B00080B203F0E3B800F15803DBB2162B06D84F
:1039C000084ABDE8104032F8130003F0E7B8EC28CD
:1039D00005D901F09FFDBDE8104001F06FBE10BD9C
:1039E000B40D002078B3006008B5002858D08228B4
:1039F0000FD103F0A9F8810752D5392000F0E6FE77
:103A000000F076FF392000F0E9FEBDE8084000F044
:103A10006FBF83280AD103F097F8C20740D553201F
:103A200000F0D4FE00F064FF5320ECE784280AD1B4
:103A300003F08AF8430733D5472000F0C7FE00F0B3
:103A400057FF4720DFE7021FD2B2A02ADBD900F1DF
:103A50002002D2B2072A07D800F0070301209840BD
:103A6000C0B200F0F1FED0E700F15B02D2B2022A50
:103A700004D8BDE80840002003F080B800F15802E7
:103A8000D2B2162A04D8BDE80840002003F086B858
:103A9000EC2805D901F09CFDBDE8084001F00EBE00
:103AA00008BD38B505460C46FFF71EFF1CB9284671
:103AB000FFF79AFF38BD0A20013C03F03CFFA4B297
:103AC000F4E708B539280CBF50210021FFF7E9FFC2
:103AD00008BD08B528B100F0AFFEBDE8084000F011
:103AE00007BF08BD08B528B100F0AEFEBDE808402C
:103AF00000F0FEBE08BD00002DE9F04790F80680FA
:103B0000857881460C4600F087FE4FEA1818064675
:103B1000C8B12E46BDB1C4F3072303F0F003402B18
:103B200004D004F12003DBB2072B1FD9A94B5E7828
:103B300016F0040607D0022000F034FF00F06CFEFF
:103B400080F00106F6B2C4F3033ABAF10B0F3CD889
:103B5000DFE81AF00E000E005C005C00C700DF001A
:103B60003B003B00E9004B015A015A010026EAE7FD
:103B7000C4F30723C4F3032713F0F00F18BF3F016A
:103B8000E4B285B157B104F12003DBB2072B38460C
:103B900000D92CB900F050FE00F0AAFE20465CE0EF
:103BA00000F066FEF8E72046FFF71EFF6FB104F154
:103BB0002003DBB2072B384600D914B900F044FECD
:103BC00001E000F05DFE00F093FEAAF1080ABAF1F0
:103BD000030F03D802F0B8FFFFF730FE002E00F00D
:103BE000718100F011FE10F0010040F06B8189F846
:103BF000020000F001FE00F06FFA484600F078F98C
:103C000000F0FAFDBDE8F04700F072BAC4F30723F4
:103C100003F0F003C4F30327202BE4B218BF3F01E5
:103C20007CB1012C45D0002D4DD0B8F1000F44D00F
:103C300099F80630D907B1D56FF3071389F8063024
:103C40003BE0644B5B78580711D44DB127B138463F
:103C500000F0F2FD00F04CFE0020FFF745FEB4E757
:103C60002846FFF7C1FE002FAFD03846A6E79DB12A
:103C7000B8F1000F06D100F011FE3843C0B2FFF7D3
:103C800028FFA2E7B8F1010FF5D100F007FE384395
:103C9000C0B200F00FFE98E7B8F1000F05D100F0B8
:103CA0001BFE3846FFF71EFF8FE7B8F1010F8CD0DF
:103CB000F5E725B1B8F1050F87D83846DFE7B8F149
:103CC000040F82D8EDE7B8F1000FEAD0392C0CBF11
:103CD0004FF44870012003F02EFE2046FFF784FECB
:103CE00073E714F4406FC4F3812308D0012B7FF4F1
:103CF0006CAF65B1C4F3090002F050FF65E725B170
:103D0000C4F3090002F03AFF5FE72846FAE72846C5
:103D1000F2E7E0B225B101F0FDFB01F0CFFC54E782
:103D200001F056FCF9E714F4407F2BD1002D7FF40D
:103D30004CAFC4F34213E2064FEA830348BF0F259A
:103D4000DBB248BF9D4004F00F0048BFED4300FACE
:103D500003F0C4F3812448BFADB280B2022C40EA24
:103D6000050009D0032C0AD0012C02D000F082F902
:103D70002BE700F077F928E700F084F925E700F059
:103D80006EF922E7C4F3012205B312F0010F3FF4EC
:103D90001CAFC4F342108000C3B204F00F0098407F
:103DA00082B214F010001EBF0F209840C043C4F32D
:103DB000812418BF80B2022C40EA02000FD0032CED
:103DC00010D0012C08D000F0B1F9FEE612F0020F7D
:103DD000DDE700BF0021002000F0A0F9F5E600F0CB
:103DE000ADF9F2E600F05AF9EFE6E7B2C4F30324C6
:103DF0001DB1204600F070F95FE73846FFF772FE0C
:103E0000204600F075F9E0E6E7B2A7F1F003042BD5
:103E100040D8DFE803F003241017200045B1B8F1C3
:103E2000040F3FF6D2AEC4F3042000F06BF9CCE6E9
:103E3000B8F1050FF5E7C4F30420002DE1D100F03F
:103E40004BF9C2E625B1C4F3042000F03FF9BCE60B
:103E500000F030F9B9E61C4B5B785B0704D4C4F37F
:103E60000420002DCDD0EAE74DB1C4F30424204650
:103E700000F032F90321204600F070FDA5E6012094
:103E800000F090FDB8F1010F7FF69FAE022000F028
:103E900089FD9AE63DB1B8F1000F01D03846DCE665
:103EA000C4F30420CBE7B8F1000F08D0392F0CBFC2
:103EB0004FF44870012003F03EFD38460EE7C4F38E
:103EC00004209EE7BDE8F0870021002038B5018876
:103ED0000446807800F0CCF9054600F037F900F090
:103EE000BDF829462046BDE83840FFF705BE000072
:103EF00013B50446014606226846FDF709FEA3886D
:103F0000F3B1BDF800204FF6FF739A4218D0204657
:103F1000FFF718FC70B900F07FFC88B1A3787BB183
:103F2000084B5B785B070BD5022002B0BDE8104060
:103F300000F038BD2046FFF7C9FF2046FFF7DBFB46
:103F400002B010BD0021002008B528B100F090FC9F
:103F5000BDE8084000F0CCBC08BD08B528B100F0B1
:103F60008FFCBDE8084000F0C3BC08BD08B50020C8
:103F700002F004FE002002F011FE00F089FC00F0C7
:103F8000B7FC01F0B7FBBDE8084001F097BB08B5EE
:103F900000F02CFCBDE80840FFF7E8BF08B500F0D2
:103FA0005BFCBDE80840FFF7F2BFC0F30333062B0C
:103FB000C2B213D094BF0E33063303F00F03012BAC
:103FC00010D8F02A10D004D8E72A8CBF0020012096
:103FD0007047F42A14BF002001207047E72A03D954
:103FE000F12AF7E7002070470120704713B5044617
:103FF000014606226846FDF78BFDA3886BB1BDF82C
:1040000000204FF6FF739A4207D0208800F024F971
:1040100002B0BDE81040FFF7C8BF002002B010BDDD
:1040200082B002AB03E9030002B0704782B002AB7A
:1040300003E9030002B07047704708B5FFF7FCFFC3
:1040400008BD000008B5FFF7F8FF034B1880BDE876
:104050000840FFF78BBF00BF0E1000207047FFF72E
:10406000F1BF0000024B1B881843FFF7EBBF00BFF6
:104070000E100020024B1B881840FFF7E3BF00BF63
:104080000E100020024B1B885840FFF7DBBF00BF1B
:104090000E10002008B5FFF761FA08BD08B5FFF75C
:1040A000F9FF034B1880BDE80840FFF75FBF00BF72
:1040B000101000200020FFF7F1BF18B9B1FA81F00D
:1040C00040097047084100F001007047012303FADE
:1040D00000F080B2FFF7E2BF012303FA00F0034BC8
:1040E0001B88184380B2FFF7D9BF00BF1010002013
:1040F000034A01238340108820EA0300FFF7CEBF64
:1041000010100020012303FA00F0034B1B885840D5
:1041100080B2FFF7C3BF00BF10100020024B1B8806
:104120001843FFF7BBBF00BF10100020024B1B88D5
:104130001840FFF7B3BF00BF10100020024B1B88D0
:104140005840FFF7ABBF00BF10100020704701F0D0
:10415000070330B5C908012402EB81029C40E4B298
:10416000013A002112F8015F20FA01F343F3000342
:104170006B40234001316B4004291370F2D130BDF4
:1041800010B5002200F00704C00801EB80011046C2
:104190008B5CE34003F00103934001321843042A8F
:1041A000C0B2F5D110BD000082B00B46ADF80400DE
:1041B000C0F3072009280ED89DF8041018290AD842
:1041C00000EB800000EB80000144044A89B21846ED
:1041D00002B0FFF7BCBF02B0704700BF1210002052
:1041E00082B0ADF80400C0F3072009280DD89DF86F
:1041F0000430182B09D800EB800000EB8000184435
:10420000034980B202B0FFF7BBBF002002B0704785
:10421000121000200E4B73B51D880E4BADF8040034
:104220001B881D43ADB20F2445FA04F3DB07E6B249
:1042300005D4013CF8D20026304602B070BD019989
:10424000304600F01BFE80B20128F2D0F4E700BF38
:10425000101000200E10002007B5ADF804000198E2
:10426000FFF7D8FF019903B05DF804EB00F006BE3C
:1042700013B5104BADF804101B782BB1019802B0A8
:10428000BDE81040FFF7E8BF70B10198FFF7C2FF2B
:10429000044601460198FFF787FF0199204602B0C6
:1042A000BDE8104000F0EABD0198FFF799FF044611
:1042B000F3E700BF0D100020F8B50C4B0C4E1C7836
:1042C0000C4D3378A34200D1F8BD05EBC40335F89B
:1042D00034005F889A88D98840EA074042EA014161
:1042E0000134FFF7A3FE04F00704EAE7DB10002027
:1042F000DA1000209A100020064B10B418885C8851
:104300009A88D98840EA044042EA014110BCFFF78C
:104310008DBE00BF92100020F7B5224CA37913F098
:10432000F00F08D1A37833B11F4B204F1D78204EDA
:104330003B78AB4201D103B0F0BD2146062268466E
:10434000FDF7E6FBA18841B3BDF800204FF6FF73EF
:104350009A4222D006EBC50360785A7890421CD16D
:10436000207816F83520904217D19A78AAB99A8801
:10437000521A92B2952A10D8A2790A48012161F303
:104380000712A2719A7961F307129A71FFF7B0FDD3
:1043900003B0BDE8F040FFF78FBF013505F007051A
:1043A000C6E700BF92100020DB100020DA100020CA
:1043B0009A1000202DE9F04FAE4D87B0044601461B
:1043C000062202A8FDF7A4FB0622294604A894F8B9
:1043D00000B094F801A0A778B4F80480FDF798FB2A
:1043E000AB88002B00F0FF80BDF810204FF6FF7166
:1043F0008A4200F0F880AE78002E00F0F480A8EB3E
:10440000030295F8069092B2952A09F0F00900F29D
:10441000B5800622294604A8B9F1000F71D1FDF735
:1044200077FBBDF810204FF6FF718A42B94614D0D1
:104430002188914211D187B9AB79012262F3071328
:10444000AB71FFF759FF2846FFF752FDAB79A37117
:104450000026304607B0BDE8F08F8DF808B08DF823
:1044600009A08DF810B08DF811A0B8F1000F23D07D
:10447000BDF810104FF6FF7291421DD0F7B97E497A
:104480007E4A0D7812787E49AA421CD10298FFF725
:10449000E3FEC0F30332012AC3B224D90E3202F084
:1044A0000F02012A28D810F4706F21D0A27912F0DF
:1044B000F00F1DD14E46CCE7002FC9D0AB7943F0A9
:1044C0000103AB71C4E701EBC2004778574506D141
:1044D00011F832705F4502D180780028B8D10132DE
:1044E00002F00702D0E710F4706F01D0002BE1D08A
:1044F0002033DBB2072BDDD92046FFF7F9FCB146AC
:10450000D8E7FDF705FBBDF810304FF6FF72934278
:1045100010D022889A420DD167B9AB79A371204699
:10452000FFF7E6FC082221462846FDF7F1FAFFF7DF
:10453000E3FE8EE72046FFF759FDD8B1D7B1AB793E
:104540001F2B0CD92A88ADF8102004A800228DF862
:104550001220ADF814808DF81630FFF7C9FC082240
:1045600021464448FDF7D4FAFFF7D6FEFFF7C4FE14
:1045700001266EE72046FFF7BBFCF9E7B9F1000F13
:1045800015D102AB8DF808B08DF809A08DF80A702E
:1045900093E80300FFF744FD2846FFF7A9FC082233
:1045A00049462846FDF74EFBFFF7A6FE82E70622A6
:1045B000294604A8FDF7ACFABDF810304FF6FF729B
:1045C0009342B7D02A8823889A42B3D1002FB1D121
:1045D000AB79A3712046FFF78BFC082239462846A9
:1045E000FDF730FB35E723490193062204A8FDF7C8
:1045F0008FFA019B002B64D0BDF810204FF6FF7995
:104600004A455ED0AE78002E5BD1A8EB03081FFAB6
:1046100088F8B8F1950F43D83E46002FAAD0154927
:10462000062204A8FDF774FABDF810304B4529D0D6
:104630002A8823889A4225D1AB79DA0713D413F05C
:10464000F00210D0F02AA37106D0DBB2C3F303123C
:10465000013262F30713A3712046FFF749FC0548B6
:104660000822214661E7082221460248FDF750FA58
:10467000EFE600BF92100020DA100020DB100020CF
:104680009A1000202046FFF7B1FC00287FF467AFA6
:10469000AB79204643F00103AB71FFF729FCD8E664
:1046A0008DF808B08DF809A08DF80A7002AB93E878
:1046B0000300FFF7B5FC082231460C48FDF7C2FAAB
:1046C00035E7002F3FF456AF2046FFF78FFC064634
:1046D00000283FF44FAF082221460448FDF718FA9E
:1046E0000248FFF7FEF8FFF717FE20E792100020C0
:1046F000F0B587B06C4684E803002046FFF75AFE09
:104700002E4FBDF804202E4D064678B194E80300E4
:104710000490ADF814103AB1BDF810204FF6FF73B5
:104720009A4201D0FFF782FC264C41E094E8030056
:1047300004AB83E803000290002AF5D0BDF80840DE
:1047400038782A784FF6FF718C42EDD0441C04F083
:10475000070494420AD019461A4B082203EBC00002
:10476000FDF7D6F93C70FFF7A7FDDDE7FFF716FC74
:104770000822314614483E702E70FDF763FAD3E7E5
:1047800004EBC000FFF716FEB0B12B7834F833000D
:1047900004EBC3035E889A88D98840EA064042EA5F
:1047A0000141FFF743FC2B78013303F007032B7023
:1047B00028783B788342E3D107B0F0BDDA100020BF
:1047C000DB1000209A10002092100020024B0146BE
:1047D000186802F036BA00BFB40D0020024B014643
:1047E000186802F030BA00BFB40D0020014B186801
:1047F00002F02BBAB40D0020024B93F90000C0F375
:10480000C7007047EC100020024B187800F007003A
:10481000704700BFEC100020034B187810F0070021
:1048200018BF0120704700BFEC100020014B187822
:10483000704700BFEE100020024B1A78104318702A
:10484000704700BFEE100020024A137823EA0003ED
:1048500013707047EE100020014B00221A70704751
:10486000EE100020014B1878704700BFEF100020B9
:10487000024B1A7810431870704700BFEF100020E9
:10488000024A137823EA000313707047EF100020E8
:10489000014B00221A707047EF100020014B18786E
:1048A000704700BFED100020704708B5FFF7FCFF10
:1048B00008BD0000064A5278520708B506D5054AD9
:1048C0001178814202D01070FFF7EFFF08BD00BFE2
:1048D00000210020ED10002008B5044B1A781AB111
:1048E00000201870FFF7E1FF08BD00BFED100020A9
:1048F00010B5124B124A1B781278124C1343124A0D
:1049000020681278037032B11343037002F056F935
:1049100008B1FFF7E1FF24680C4908222046FDF7A3
:10492000C7F848B1214609480822FDF7F1F82046AA
:10493000BDE8104002F010B910BD00BFEE1000201D
:10494000EF100020B40D0020ED100020E410002036
:10495000704708B5FFF7FCFF08BD00000A4A52780F
:10496000520710B50CD5094C41EAC0012170FFF780
:10497000B3FB94F90000C0F3C700FFF7EAFF10BDD6
:10498000BDE81040FFF7A8BB00210020EC1000207C
:1049900008B5034B00201870FFF7DBFF08BD00BF10
:1049A000EC10002008B50C4A92F9003023EA000010
:1049B00040B2107042070ED1DBB283420BD0074BDE
:1049C0005B785B0707D5C0F3C700FFF791FBBDE835
:1049D0000840FFF7DDBF08BDEC10002000210020DB
:1049E000094A08B55378C3F3800181420AD060F3C5
:1049F00082035370108800F041F8BDE8084002209F
:104A0000FFF7D0BF08BD00BF00210020044B58783D
:104A1000C0F3800080F0010000F00100FFF7E0BF6C
:104A2000002100200120FFF7DBBF0020FFF7D8BFE7
:104A300008B500F0C1FFBDE808404FF6FF71002047
:104A400000F09EBF08B5002000F04DFF4FF6E86370
:104A5000C31A5842584108BD022000F035BF032058
:104A600000F032BF10B5042000F02EFF04462220D3
:104A700000F02AFF44EA002080B210BD10B5C1B298
:104A80000446042000F06EFF210A2220BDE81040F9
:104A900000F068BF01460F2000F080BF01461320E0
:104AA00000F07CBF0020FFF7F9BF08B50020FFF73A
:104AB000F1FFFFF7F7FF08BD10B500F07DFF4FF6DF
:104AC000E861002000F05CFF0021022000F04AFFB6
:104AD00000210320002400F045FF1A4B214604204A
:104AE0001C8000F03FFF0421222000F03BFF214604
:104AF000052000F037FF2146062000F033FFFF219C
:104B0000072000F02FFF2146082000F047FF214634
:104B10000D2000F027FF2146182000F03FFF21461E
:104B2000172000F01FFF21461C2000F037FF214610
:104B3000202000F025FF2146182000F02FFFFFF76E
:104B4000B4FF10BD0E100020FFF7B6BF01460E20C7
:104B500000F008BF08B502F009F9024B1860024BDB
:104B6000186008BDF0100020F41000207047704756
:104B700008B5FFF7FCFF08BD08B5FEF7E5FC08BD6A
:104B800008B5054800F066FA00F01EFFFFF7EEFFDB
:104B9000FFF7EEFF08BD00BF4D50006001207047D9
:104BA00008B5FFF7FBFF08BD7047704708B5FFF772
:104BB000FBFFFFF7FAFF08BD08B500F06DFABDE88E
:104BC0000840FEF73ABE08B502F0CEF800F01AFB36
:104BD000FFF7F2FF01F090FAFFF7CEFF08BD0000EB
:104BE0002DE9F04F85B03D4F00F026FB3E460024F6
:104BF000E0B256F8045B00F077FA092C46D0854203
:104C000004F10104F4D0364B1B789B0701D500F06A
:104C100071FAFFF7C5FF002601900DF1080A5FFA4F
:104C200086FB584600F060FA57F8043B9842044669
:104C300026D080EA030900254FF0010819EA080F81
:104C400016D0019BA3B114EA080F14BF0122002261
:104C50008DF808508DF809B08DF80A2002F0BAF8E6
:104C600040F00100ADF80C009AE80300FEF710FEDA
:104C70000135EDB2192D4FEA4808DFD147F8044C51
:104C800001360A2ECBD1FFF765FF1BE08542BAD172
:104C9000144D02F09FF82B888342044612D04FF641
:104CA000FF73ADF8083000238DF80A3002F092F857
:104CB00040F00100ADF80C0004AB13E90300FEF76F
:104CC000E7FD2C8001F01CFF01F086FA00F03AFDB0
:104CD00005B0BDE8F04FFEF7C5BD00BFFC100020D9
:104CE00024110020F810002010B500F0D3F8B0F522
:104CF000A44F04463AD2B0F5A24F80F08780E7284F
:104D000015D8DF280AD8A7280AD8A4286CD80128E3
:104D100004D0031F9BB2A12B28BF0024204610BD46
:104D2000A0F1A8039BB2162B63D90024F6E7B0F5D7
:104D3000A04F0FD2B0F5804F63D2FF2804D8EC28E3
:104D4000F3D940F4A0440FE0A0F580739BB2B3F513
:104D5000F85FE1E7C0F38503012400F0030084401D
:104D600044EA431444F40D44A4B2D7E7B0F5AC4F81
:104D70001AD2B0F5AA4FC0B251D2B4F5A84F0ED294
:104D80008308B4F5A64F00F003004FF0010404FAC5
:104D900000F040EA43143FD244F40C44E4E74AF202
:104DA000F40444EA0024B9E7B0F5B44F0CD2B0F5EE
:104DB000B24F3CD2A0F5B0439BB2FF2BB5D84AF21C
:104DC000F00040EA0424CFE7A0F5C0439BB2B3F55E
:104DD000005FAAD2C0F3042000F0E2F8030203F45B
:104DE000F853E4B21C431FE0A0F1240444F48044CF
:104DF000BAE75834134BE4B233F8144044F488440F
:104E00008CE7C0F30B0444F4204487E7C4B24AF2B1
:104E1000F10343EA042481E744F40A44A4E700F0E0
:104E2000BFF8040204F4F85444F4005476E700F0A8
:104E30000F0000F0B5F8C4F3031440EA042444F46E
:104E4000104491E7A6B3006082B0ADF80410C1F33E
:104E5000072109290ED89DF80430182B0AD8FA2208
:104E60005043192202FB01001844034B33F8100091
:104E700002B070470020FBE7A4A7006007B5ADF8BB
:104E800004100199FFF7E0FF03B05DF804EBFFF7B2
:104E90002BBF0000E72850D8DF2807D8312865D07D
:104EA0000ED8292858D02A2867D07047A0F1E003EF
:104EB000072B42D8DFE803F01541242933413D4256
:104EC000392804D0822802D0352840D07047334B8F
:104ED0001A7892075CD15B7813F0080F18BF29206D
:104EE00070472E4A1378D9074ED4527812F0010F2A
:104EF00023D013F0100F08BFE32018BF0020704725
:104F0000264B1B7813F0040FF2E7244A1378590755
:104F10003CD45278D2073BD413F0100FEDE71F4B6F
:104F20005A78910709D51B7813F0100F08BFE720B6
:104F3000E3E71A4B1B781A07F6D47047174A137821
:104F4000190727D452789107E6D5E4207047134B10
:104F50001B7813F0200FC1E7104B1A7892061BD470
:104F60005B7813F0080F18BF392070470B4B1B7884
:104F700013F0400F18BF2A207047084B1B7813F01E
:104F8000400F18BF3120704739207047E22070472A
:104F9000E0207047E62070473520CEE70021002052
:104FA000294A1378590707D500F01801082927D195
:104FB00000F0F70040F00400190707D500F01801D1
:104FC000182926D100F0E70040F014005278D107EC
:104FD00007D500F01801082924D100F0F70040F0AF
:104FE0000100920707D500F01802182A23D100F01B
:104FF000E70040F01100DB0648BF00F0E700704713
:1050000000F01401042904BF00F0FB0040F0080088
:10501000D2E700F01401142904BF00F0EB0040F0C7
:105020001800D3E700F01101012904BF00F0FE00D1
:1050300040F00800D5E700F01102112A04BF00F08B
:10504000EE0040F01800D6E7002100200020704755
:1050500000207047014B1860704700BFB80D00205A
:10506000FFF7E6BC08B500F0E7F84FF4C87002F0AF
:1050700062FC00F0E1F8002000F036F8C30705D527
:10508000FFF7EEFFBDE8084001F0B0BE08BD08B56F
:10509000FFF7E8FF08BD000008B5FFF7D3FC08B92B
:1050A000FFF752FDFFF7D8FC094B1870FFF7DAFC49
:1050B000084B1880FFF7EBFFFFF7D1FC80B2FEF73B
:1050C000CEFF054B1888BDE80840FEF7E3BF00BFE0
:1050D000241100200021002010100020704770478C
:1050E00008B5FFF7FCFF08BD014B53F820007047DF
:1050F0002C210020704700BF00BF00BF00BF00BFD1
:1051000000BF704708B5302383F31188C1B220F483
:105110007F60032220F00F0003F042FC002383F3A2
:10512000118808BD38B50C4D0A2455F8040B421CF3
:1051300001D0FFF7E7FF013C14F0FF04F5D1074D64
:10514000192455F8040B431C01D0FFF7DBFF013C89
:1051500014F0FF04F5D138BD38B40060D4B300605A
:105160002DE9F84FDFF8908058F821400D46611C7A
:10517000074636D0302383F31188DFF8809004EAA5
:105180000906E4B221463046062203F009FC214616
:105190000022304603F0F6FB002484F31188FFF769
:1051A000AAFFDFF85CB019264FF0010A5BF8040B88
:1051B000421C18D10023013E16F0FF0644EA030406
:1051C0004FEA4A0AF2D158F82500431C01D0FFF7F4
:1051D00099FF211E18BF01212846FEF735F947F82F
:1051E0002540BDE8F88FC1B200EA090003F0C0FB1A
:1051F0000028DFD15346DEE738B4006000F0FFFF3F
:10520000D4B3006010B52824FFF78CFF224600219C
:105210000748FCF717FD224600210648FCF712FD5F
:105220000A2000F03DF8BDE81040FEF76DBA00BF5F
:105230002C2100200421002070B58AB028220021F2
:105240006846FCF7FFFC0024E1B268460134FFF732
:1052500087FF0A2CF8D1104828226946FCF728FC61
:10526000002814BF0126002609D06C460FCC0A4D39
:105270000FC50FCC0FC594E8030085E8030007496C
:10528000054833460A2200F01DF80446FEF73EFAB0
:1052900020460AB070BD00BF042100202C21002050
:1052A00010B500EB800404EB84042046FCF79EFB61
:1052B000034B22460021BDE810401860FCF7C2BC39
:1052C000281100202DE9F04F494D4A4F2E7885B026
:1052D0001C4600230390029100923B70002E5FD089
:1052E00001F044FD444B19681860411AFF2904D8A5
:1052F00021B9002C5DD1344653E0FF213F4BDFF84C
:1053000000E1D3F800C00022C9B22A708EF8002054
:105310009046914692460098D3B298420BD8B9F184
:10532000000F01D001232B70B8F1000FE1D0012351
:105330008EF80030DDE70CF1FF330CF1180B13F899
:10534000010F40B1814233BF401A83F800A0B0463C
:10535000187038BFB1465B45F1D10CF1190C013220
:10536000D9E7039A4C6852F8232062400292002247
:10537000012606FA02F9029E16EA090F09D018F86A
:10538000026036B9012008F802A084EA09048646C2
:1053900084460132192AEBD141F8044F013316E05B
:1053A0001CB9174B1B78FBB11CB901F0DFFC124B89
:1053B0001860124B95F800C01B680193029B387867
:1053C000191F00239E464FF0190B4FF0140A019A43
:1053D000009C0BFB0328DAB29442C2D8BEF1000F46
:1053E00002D085F800C03870387805B0BDE8F08F7D
:1053F00026110020251100202C110020281100204A
:105400003011002008B501F0ABFFFFF7DCFBBDE871
:10541000084001F0BBBF08B501F0BEFFFFF7E0FB9D
:10542000BDE8084001F0D8BF08B501F063FC01F009
:1054300095FFFFF7A5FBFFF7E5FFFFF7ECFFFFF791
:10544000B5FBFAE7154B1B78D90705D5144B18782F
:10545000400808B3C0B270479A0705D5104B1878BA
:105460007F28F6D97F2070475B0703D50C4B18784F
:105470004000F5E70B4B1B7863B10B4A08491278E3
:1054800008789342F4D210FB03F04000B0FBF2F036
:1054900080B2E5E70220DDE7012070473C110020E3
:1054A000BE0D00203D110020BF0D0020154B1B78C4
:1054B000D90705D5144B1878800800B3C0B27047DF
:1054C0009A0703D5104B18784008F6E75B0705D517
:1054D0000D4B18787F28F0D97F2070470B4B1B7835
:1054E0005BB10B4A084912780878934236BF10FB2B
:1054F00003F080B2B0FBF2F0ECE70120DEE7012020
:10550000704700BF3C110020C20D00203E1100205A
:10551000C30D0020ED2808B505D1FFF793FF4042E9
:10552000294BD87008BDEE2802D1FFF78BFFF7E7B3
:10553000EF2805D1FFF786FF4042234B9870F1E733
:10554000F02802D1FFF77EFFF7E7F92804D1FFF733
:10555000ADFF1D4B1871E5E7FA2803D1FFF7A6FF51
:105560004042F6E7FB2805D1FFF7A0FF4042164B6B
:105570005871D7E7FC2802D1FFF798FFF7E700F151
:105580000F03DBB2072B08D80F4A0123F13803FAC7
:1055900000F0537818435070C4E7FD2805D10B4A3A
:1055A000137843F001031370BCE7FE2804D1074AC7
:1055B000137843F00203F6E7FF28B3D1034A1378C8
:1055C00043F00403EFE700BF361100203C11002038
:1055D000364BED2893F902200AD193F903100029E4
:1055E0000CDA0021D97052B9314A0021117006E05D
:1055F000EE280DD193F903100029F2DC72B11A796B
:105600005B7913435AB2002B4FD12A4B1A70704763
:10561000EF2806D1002AF1DA00229A7093F90320CC
:10562000E1E7F02802D1002AF6DCE7E7F92893F950
:10563000041004D10029E1DD00211971DEE7FA2808
:1056400002D10029DADAF7E7FB2893F9051004D133
:105650000029D3DA00215971D0E7FC2802D10029B2
:10566000F8DCCBE700F10F01C9B2072907D8F13800
:1056700001218140587820EA01005870BEE7FD28DA
:1056800005D10D48017821F001010170B6E7FE282F
:1056900004D10948017821F00201F6E7FF28ADD1D5
:1056A0000548017821F00401EFE77047361100202A
:1056B0003D1100203E1100203C11002008B501F0F2
:1056C00089FB094BDA7899780A431CBF074A108096
:1056D0001A795B7913431CBF054B1880BDE808405D
:1056E000014801F041BA00BF3611002032110020FC
:1056F0003411002008B5062205480021FCF7A2FA63
:10570000044A00231370044A1370044A137008BD3E
:10571000361100203D1100203E1100203C110020D8
:1057200090F902305BB990F9033043B990F9043035
:105730002BB990F90500003818BF012070470120EF
:105740007047000037B5574C062221466846FCF7E3
:10575000DFF900239DF80220A370E37023716371C9
:105760009DF8033013430AD04F4B188801F037FBE4
:105770004E490B783BB34E4A127890422DDC9DF88F
:1057800004209DF8053013430BD04A4B188801F0D4
:1057900026FB49490B78002B4CD0484A127890429E
:1057A00052DC4048694601F055FA18B93D48FFF708
:1057B000B7FF08B1FFF782FF062269463948FCF7B8
:1057C000A7F903B030BD3E4A127802EB8202B0EB7B
:1057D000420FD4DD01330B7001E0FF2BFAD19DF9AC
:1057E00002503DB1FFF72EFE002DCCBF0123FF2359
:1057F0004343A3709DF903503DB1FFF723FE002DF5
:10580000CCBF0123FF234343E37094F90220002A15
:10581000B5D094F90330002BB1D0B5214A43121210
:1058200001FB03F308BF01221B1208BF0123A27072
:10583000E370A4E7234A127802EB8202B0EB420F36
:10584000AFDD01330B7001E0FF2BFAD19DF904505D
:105850003DB1FFF72BFE002DCCBF0123FF234343B7
:1058600023719DF905503DB1FFF720FE002DCCBFFF
:105870000123FF234343637194F90420002A90D04D
:1058800094F90530002B8CD0B5214A43121201FB4C
:1058900003F308BF01221B1208BF012322716371A9
:1058A0007FE700BF36110020321100203D1100209B
:1058B000BD0D0020341100203E110020C10D00203C
:1058C000BC0D0020C00D002007B5002301460122B9
:1058D0000DF107008DF8073000F078F89DF807000B
:1058E00003B05DF804FB07B50023014602220DF169
:1058F0000600ADF8063000F069F8BDF8060003B008
:105900005DF804FB07B50422014600230DEB0200FD
:10591000019300F05BF8019803B05DF804FB07B554
:1059200001228DF8071001460DF1070000F066F81E
:1059300003B05DF804FB07B50222ADF8061001467E
:105940000DF1060000F05AF803B05DF804FB07B54E
:105950000422019101460DEB020000F04FF803B064
:105960005DF804FB38B50C460546FFF7ADFFA042D5
:1059700005D021462846BDE83840FFF7D0BF38BDE6
:1059800038B50C460546FFF7AEFFA04205D02146CC
:105990002846BDE83840FFF7CEBF38BD38B50C46C5
:1059A0000546FFF7AFFFA04205D021462846BDE8D7
:1059B0003840FFF7CCBF38BD024824220021FCF755
:1059C00041B900BF40110020FFF7F6BF70B50D468A
:1059D000144600210646FCF735F92B19242B88BF05
:1059E000C5F124043CB10449224629443046BDE8AF
:1059F0007040FCF78DB870BD401100200B4611447B
:105A0000242988BFC3F1240222B101460248184468
:105A1000FCF77EB8704700BF4011002030B585B05C
:105A200010F47F4F0A460190C0F30725C0F30741E9
:105A300017D10AB1304B595C8DF80C108DF80D1050
:105A40008DF80E109DF80C30002063F307009DF8D0
:105A50000D3063F30F209DF80E3063F3174005B04F
:105A600030BD9DF8044072B3234B595C04EB4400F5
:105A7000FF234000B0FBF3F06FF05403434303EB0C
:105A8000440303EB4303DBB215FB03F2C3F1FF0353
:105A90006B4312121B12C5F1FF04C2F1FF02C3F1E6
:105AA000FF034C434A434B43C4F30724C2F307228A
:105AB000C3F30723C9B2062819D8DFE800F00608A7
:105AC000110F1418060089B2D0E70A4619468DF85E
:105AD0000C108DF80D208DF80E40B3E70B461146E3
:105AE00022461C46F3E71A460B462146F9E70B46C9
:105AF000214614461A46EAE773B5006084B00121D6
:105B000004B0FFF78BBF704784B004B0FFF7F6BF57
:105B100013B58DF802208DF800008DF80110009863
:105B20001C46FFF7F1FFC0F30743C0F30722627082
:105B30002070A37002B010BD064A137813F0FE0F58
:105B400004D1012161F3470313707047172BFCD96F
:105B50000B21F7E7542100200820FFF7D3BE08B53A
:105B6000FFF7EAFF0146BDE808400820FFF716BF2F
:105B7000014B1868FFF7F3BF54210020034B044882
:105B80001860C8221A71FFF7EABF00BF5421002035
:105B900005150064034B1B7813F0010018BF58086B
:105BA000704700BF54210020044A1379022B9CBF88
:105BB0000133137108B1FFF7DBBF70475421002098
:105BC0000120FFF7F1BF0000044A13790BB1013B3C
:105BD000137108B1FFF7CCBF704700BF54210020FC
:105BE0000120FFF7F1BF0000044A012392788340AF
:105BF0001A4214BF01200020704700BF741100201A
:105C000000F004BC2DE9F04F304B314F1A7897F873
:105C100001A012F0010285B010D02E4BD3F8008005
:105C2000B8F1000F1DD138782B4B00EB40005146E6
:105C30001844FFF7E5FF05B0BDE8F08FB978264CB2
:105C4000F87801EB41032344884203F10303E4D9CC
:105C5000013103F8022C03F8032C03F8012CC9B21C
:105C6000F2E71E4B1E78002EDDD1DFF86C90F0B20B
:105C7000FFF7BAFF28B358F82650002DD3D02C7860
:105C80006B7895F802B0E9782A79FF2C05F10505C3
:105C900017D02344452BA8BF452303EB43034B44B4
:105CA00004EB440401934C44019BA342E7D92346EF
:105CB0005846039202910334FFF72AFF039A029990
:105CC000F2E70136082ED2D1ADE700BF5421002003
:105CD000C40D0020701100205C2100206B110020F9
:105CE0000E4B1B78DB0770B416D50D4B0D4E9C7810
:105CF000DD7804EB44033344AC4203F1030302D3E5
:105D000070BCFFF77FBF013403F8020C03F8031CDB
:105D100003F8012CE4B2EFE770BC70475421002077
:105D2000C40D00205C210020094B1B78DB0707B560
:105D30000AD501ABFFF7ECFE9DF806209DF8041094
:105D40009DF80500FFF7CCFF03B05DF804FB00BF32
:105D500054210020064B0279064910B504468A5C9E
:105D600058789978FFF7E0FF23790133237110BD4C
:105D70005421002073B400602DE9F7431B4C2578B3
:105D80009846EB070746894616462CD5DFF860C0D3
:105D90006B0805F0FE051CF80330DFF858C0022D33
:105DA0008CF8003017D101ABFFF7B2FE9DF806204A
:105DB0009DF804109DF80500FFF792FF677084F8C6
:105DC0000290E670B8F1000F0DD0206803B0BDE876
:105DD000F043FFF7C4BE022B01D1E678EEE7062BB5
:105DE00008BF6778EAE703B0BDE8F08354210020DC
:105DF00067B4006074110020054910B44C78CA786B
:105E0000897824340346E0B210BCFFF7B5BF00BF69
:105E1000542100200120FFF7EFBF0000054910B416
:105E20004C78CA788978243C0346E0B210BCFFF76E
:105E3000A3BF00BF542100200120FFF7EFBF0000E7
:105E400010B4064CA178E2780831FF2928BFFF2161
:105E50000346C9B2607810BCFFF78EBF5421002002
:105E60000120FFF7EDBF000010B4064CA178E278E6
:105E7000083921EAE1710346C9B2607810BCFFF726
:105E80007BBF00BF542100200120FFF7EDBF0000C1
:105E900010B4064CE278A1780832FF2A28BFFF220E
:105EA0000346D2B2607810BCFFF766BF54210020D1
:105EB0000120FFF7EDBF000010B4064CE278A17896
:105EC000083A22EAE2720346D2B2607810BCFFF7C9
:105ED00053BF00BF542100200120FFF7EDBF002376
:105EE000FFF74ABF2DE9F041144EDFF85480154FFB
:105EF000044600253279E8B282420DD8FFF782FECF
:105F0000A37813F0010F237914BF013303F1FF339A
:105F10005BB22371BDE8F081B378FF21B1FBF2F1F0
:105F20002279034403EB430301FB00204344FA7846
:105F3000B978C0B2FFF7ECFD0135DBE7C40D0020F6
:105F40005C2100205421002008B5094B1A786FF31A
:105F500000021A701868FFF702FE064B00224FF489
:105F6000FA705A7001F0E7FCBDE80840FFF74ABE3E
:105F7000542100207411002008B5084B1A786FF3E3
:105F800000021A70064B00224FF4FA705A7001F0AA
:105F9000D2FCBDE80840FFF735BE00BF5421002009
:105FA00074110020084B00225A70084B1A784AB925
:105FB00001221A70064B074A1B78C3F300031370C3
:105FC000FFF7DABF704700BF741100206B1100208B
:105FD000542100206C11002008B5084B084819789E
:105FE0000122D140FBF714FD10B9064B01225A7073
:105FF00000F0F0FE044B188008BD00BF54210020C3
:10600000C90D0020741100206411002010B5164C39
:106010002378DA0726D5D8B9012262F34703237023
:1060200011B12068FFF79BFD217810480122D14073
:10603000FBF7EEFC98B10E4B00225A700D4BA17885
:1060400060780122DA70E278BDE81040FFF747BFC0
:106050000B2801D90B22E0E760F34703DFE7FFF7E6
:10606000BBFFEBE710BD00BF54210020C90D00208D
:106070007411002064110020054B1B785B0801336C
:106080000C2B014634BF18460120FFF7BFBF00BFED
:10609000542100200120FFF7EFBF0000064B1B78C2
:1060A000C3F34603013B13F0FF03014614BF184638
:1060B0000B20FFF7ABBF00BF542100200120FFF7EA
:1060C000EDBF0121FFF7A2BF034B187840F001009C
:1060D00018704008FFF7F5BF54210020034B1B78D0
:1060E000DB0701D5FFF730BFFFF7EEBF54210020DB
:1060F0000021FFF78BBF000038B5124D2B78FBB99C
:10610000FEF7A0FC18B9FEF71FFDFFF737FDFFF7FC
:1061100023FD0D4C10F0FE0F206004D1FFF72EFD83
:10612000FFF71AFD2060FFF707FD084B20780022DB
:106130005A70C30702D54008FFF7DAFF01232B701E
:1061400038BD00BF6A1100205421002074110020C6
:10615000034B187840F0010018704008FFF7C8BFE3
:106160005421002010B50D4A012303FA00F0937862
:1061700081B10343DBB293705378094C1BB920788B
:106180004008FFF7B5FF2378DB0706D4BDE81040D1
:10619000FFF738BD23EA0003EDE710BD74110020BE
:1061A0005421002008B5094B00221A70084B1B78B7
:1061B0002BB1FFF7CDFFBDE80840FFF70DBF054B42
:1061C0009B78002BF7D0FFF71DFDF4E76B11002043
:1061D0006C110020741100201B4B5A782DE9F041FE
:1061E000002A2FD01A78194B194C1B78C2EB530395
:1061F000DBB2022AA3701AD1164A174DD65CE37897
:106200002BB10027E77000F0E5FDA780208000F0AB
:10621000E1FD2388C01A80B247F6FE72904211D881
:10622000334423800A482B46BDE8F0411847062A2C
:1062300005BF0A4A0A4D0B4D5B0814BF4FF4FA66BE
:10624000D65CDCE7BDE8F081741100205421002009
:106250006411002060B40060555D006064B40060AB
:10626000E55E0060075B006000B11047084738B585
:1062700004460D46FFF78EFCA04207D3FFF78AFCC9
:10628000A84203D2BDE83840FFF704BF2046BDE86E
:106290003840FFF716BF000038B58D7804460DBBB7
:1062A000FEF7C4FA45F6D6439C4200F0220014D80B
:1062B00045F6C2439C4246D9A4F5B944443C122C4D
:1062C00012D8DFE804F014191C1F2225282B2E31C8
:1062D00034380F3D0F0F0F0F0F0045F65E539C42F1
:1062E00018BF0125284638BDFFF7F8FEFAE7174A20
:1062F0001749FFF7B9FFF5E7154A1449F9E7154AB9
:106300001549F6E7144A1349F3E7144A1449F0E72C
:10631000134A1249EDE7134A1349EAE7124A1149B1
:10632000E7E7124A1249E4E7114A1049E1E7012080
:10633000FFF7C7FED6E705210220FFF798FFD1E758
:106340000B210620F9E70125CCE700BFBD60006006
:1063500095600060395E0060155E0060895E0060D7
:10636000615E0060D95E0060B15E0060E15B00606C
:10637000C15B006070B505460724012606FA04F1EA
:1063800029404FF001021ED000214FF0844002F05E
:10639000F9FA5A2200BF00BF00BF00BF00BF00BF14
:1063A000013AF7D111464FF0844002F0EBFA232373
:1063B00000BF00BF00BF00BF00BF00BF013BF7D15F
:1063C000013CDBD270BD4FF0844002F0DBFA2322A7
:1063D00000BF00BF00BF00BF00BF00BF013AF7D140
:1063E00011464FF0844002F0CDFA5A2300BF00BF9F
:1063F00000BF00BF00BF00BF013BF7D1E0E70622AE
:1064000000214FF0844002F0CBBA0000F8B5164EE0
:10641000337804460D461BB9FFF7F1FF01233370B3
:10642000302383F311880023DAB2AA4203F1010773
:106430000CD346F6605300BF00BF00BF00BF00BFD3
:1064400000BF013BF7D183F31188F8BD02EB420294
:10645000A618A05CFFF78EFF7078FFF78BFFB0786F
:10646000FFF788FF3B46DFE77711002038B5054688
:106470008878002800F0288145F662539D4208D0B4
:1064800020D845F615439D4216D845F601439D4256
:1064900017D9FEF7E7FA8D4C45F615439D4220804B
:1064A0002AD845F601439D4215D82088FEF7E6FA22
:1064B000FDF774FD002004E0A5F5B9437B3B082BF4
:1064C000E7D938BD45F6A6539D42E2D0A5F5BB43BA
:1064D0002E3B022BF4E7A5F5B845033D122D45D818
:1064E000DFE805F04E525662666A6E7480888C90C2
:1064F0009CA0A4A8AECAB60045F603539D420ED890
:1065000045F6FA439D42D0D9A5F5B9457C3D072D06
:1065100042D8DFE805F0457B7F6199A8BBBF45F60F
:1065200062539D4200F0B880A5F5BB45263DABB255
:106530000A2BBAD80A2DB8D801A353F825F000BF0A
:10654000A9660060AB640060AB640060AB6400608F
:10655000AB640060AB640060AB640060AB6400607F
:1065600077650060ED650060B9660060237843F0F0
:106570000103237099E7637843F00803637094E79D
:10658000237843F00203F4E7237843F00403F0E7B1
:10659000237843F00803ECE7637843F00103EDE769
:1065A000637843F00203E9E7237843F01003E0E760
:1065B000237843F02003DCE7237843F04003D8E757
:1065C000FDF7ECFC237843F08003D2E7237823F037
:1065D0000C0343F00C03CCE7637823F0030343F090
:1065E0000303CBE723786FF30003C2E763786FF30D
:1065F000C303C3E723786FF34103BAE723786FF34C
:106600008203B6E723786FF3C303B2E763786FF3CF
:106610000003B3E763786FF34103AFE723786FF3C9
:106620000413A6E723786FF34513A2E723786FF3EB
:1066300086139EE7FDF7B2FC23786FF3C71398E744
:10664000237823F00C0394E7637823F0030395E7A2
:106650002378C3F3800282F00102D2B262F3820394
:1066600062F3C30385E76378DA4302F0010262F361
:10667000000362F3410381E7FDF790FC2378C3F345
:10668000C01282F0010262F3C71372E70120FEF725
:106690005DFA0AE70020FAE72378C3F3001282F0DC
:1066A000010262F3041364E72378C3F3000282F06B
:1066B000010262F300035CE76378C3F3C00282F077
:1066C000010262F3C30359E70120FAE6002100202A
:1066D000F8B5174B17491F5C174BC20800F00700AD
:1066E0008D5C16499B5C8E5C0341054113F00104EF
:1066F00046FA00F005F0010500F0010602D0E120A5
:10670000FDF7F2F815B1E620FDF7EEF83846FDF793
:10671000D8F915B1E620FDF767F914B1E120FDF7CE
:1067200063F926B1BDE8F8402C20FDF7CAB9F8BDE1
:1067300093B6006073B6006013B7006083B6006064
:106740002DE9F041234F04460E464FF00A08207809
:1067500000283DD0012838D16378012B0ED1A078D4
:10676000A51CFDF7AEF92C4601343546002DEED0C0
:106770000A20013D01F0DFF8EDB2F7E7022B04D16A
:10678000A078A51CFDF7B0F8EDE7032B04D1A078A5
:10679000A51CFDF729F9E6E7042B01D00134E3E756
:1067A0002246002512F8023FD95D4907144606D457
:1067B000002DD9D00A2001F0BEF8013DF8E7303BAA
:1067C00008FB053512F8013FEEE7FFF781FFCBE745
:1067D000BDE8F081FDA5006045F61643984210B56E
:1067E0000C461BD1FEF722F8A2780D4B72B100F0D7
:1067F000AA00002815BF01220022352029201A7086
:10680000FDF7E4FFFEF774F8002010BD1B78002BA5
:1068100014BF35202920FDF7E1FFF3E70120F4E75D
:1068200078110020F8B5144682789DF818701D463E
:10683000284B92B11C7000F0CDFA274B188004F160
:106840002003DBB2072B44D804F007040120A0404A
:10685000C0B2BDE8F840FDF73CB91E78A6422ED183
:106860001D4B188800F0BBFA952828D8AE4205F1D8
:10687000200415D006F12003DBB2072B06D806F062
:1068800007060120B040C0B2FDF72CF9E3B2072B98
:1068900006D805F0070301209840C0B2FDF719F9AA
:1068A0003846E4B2FDF70DF9072C12D805F00705BC
:1068B0000120A840BDE8F840C0B2FDF713B904F1CB
:1068C0002003DBB2072B04D804F007040120A0400A
:1068D000F0E7F8BD791100207A11002013B545F6D4
:1068E000F74304469C4208460FD845F6F3439C42C2
:1068F00012D845F6D9439C421DD045F6DA439C4256
:106900003ED045F6D8439C420FD0807800283BD03B
:106910001E4B00221A701CE0A4F5B944753C022CF1
:106920000ED8DFE804F0181F260026230093E12389
:106930001A4621460AE027230093E523E522F8E7DB
:1069400026230093E022E12345F6F441FFF76AFF96
:10695000002002B010BD27230093E422E52345F672
:10696000F541F3E726230093E222E12345F6F641C1
:10697000ECE727230093E622E52345F6F741E5E718
:10698000282300930123D9E70120E2E779110020B1
:10699000036910B504460BB141699847E078FDF7EB
:1069A0006FFF2079FDF750FFFDF7A2FF0023236062
:1069B000A38010BD43799A0710B504460FD443F065
:1069C00002034371C078FDF753FF2079FDF734FFD0
:1069D000FDF78EFFE36813B1616920469847064BC7
:1069E00000221A806379DB0704D42046BDE81040FA
:1069F000FFF7CEBF10BD00BF7C11002010B583781B
:106A0000022B044606D14888FCF70AFE637943F05E
:106A10000203637110BD0888FCF702BE10B58078D0
:106A200001280C4606D100F086FF2088BDE8104002
:106A3000FCF70CBE022801D14888F7E710BD000022
:106A40008B7810B50246A3B10A4B1B888BB18342E9
:106A50000FD0094C1821DBB24B43E018417941F0CB
:106A600004014171E252FFF7A5FFBDE81040FDF7B8
:106A70000FBF10BD7C110020940C0020F8B5A0F5CC
:106A8000AE43FF2B05462BD81A4E8B78C7B218247D
:106A900004FB0764627963F30002627113B300F0D0
:106AA00099F9154B1880A3780133A370FDF7BEFE4A
:106AB000E070FDF7D7FEE3781843E070FDF7EEFED7
:106AC000A368207113B1616920469847182303FB1E
:106AD0000766737913F0020F084B18BF00251D805D
:106AE0000120F8BD63799B07FAD52046FFF750FFD8
:106AF000F6E700BF940C00207E1100207C110020DE
:106B000010B50B4C23888BB10A4B188800F067F93D
:106B100096280BD923780848182202FB03004379F2
:106B20005B0703D4BDE81040FFF744BF10BD00BFB2
:106B30007C1100207E110020940C0020014B186075
:106B4000704700BF80110020024B186808B103682D
:106B50001847704780110020024B1B680BB15B681F
:106B60001847704780110020034A12681AB10221A9
:106B7000017093681847704780110020054A1188FA
:106B8000814205D0044B10801B680BB1DB681847AD
:106B9000704700BF8611002080110020054A11882F
:106BA000814205D0044B10801B680BB11B6918474C
:106BB000704700BF8411002080110020821C00F16A
:106BC000080300209A4200D1704712F8011B0029E7
:106BD000F8D00130C0B2F5E70346084651B19A1C1F
:106BE000083312F8011B814203D09A42F9D10020E8
:106BF00070470120704730B54FF0FF32841C0023EE
:106C000014F8015B8D420ED0B2F1FF3F02D1002D8E
:106C100008BF1A460133DDB2062D5BB2F0D1531C1A
:106C200001D01044817030BD10B5831C00220830A3
:106C300013F8014B8C4208BF03F8012C8342F7D1B3
:106C400010BDFFF7D8BFFFF7EFBF062200210230CB
:106C5000FAF7F8BF08B50622FAF72AFF003818BF7E
:106C6000012008BD704708B5FFF7FCFF08BD000014
:106C700008B50028034B14BF022001201870FFF74D
